8=FIX.4.4|9=112|35=A|34=1|49=Q027|52=20190704-17:38:36.361|56=XCD13|98=0|108=30|141=Y|553=primexm_fix_uat_20_q|554=7y8QNNgzxKto|10=134|8=FIX.4.4|9=106|35=V|34=2|49=Q027|52=20190704-17:38:36.691|56=XCD13|262=1|263=1|264=1|1500=1|267=1|269=0|146=1|55=EUR/USD|10=147|8=FIX.4.4|9=58|35=b|34=3|49=Q027|52=20190704-17:38:36.958|56=XCD13|117=1|10=091|8=FIX.4.4|9=106|35=V|34=4|49=Q027|52=20190704-17:38:37.193|56=XCD13|262=2|263=1|264=1|1500=2|267=1|269=0|146=1|55=USD/JPY|10=156|8=FIX.4.4|9=101|35=3|34=5|49=Q027|52=20190704-17:38:37.395|56=XCD13|45=3|58=Required tag missing|371=117|372=i|373=1|10=068|8=FIX.4.4|9=58|35=b|34=6|49=Q027|52=20190704-17:38:42.756|56=XCD13|117=2|10=088|8=FIX.4.4|9=58|35=b|34=7|49=Q027|52=20190704-17:38:44.337|56=XCD13|117=3|10=087|8=FIX.4.4|9=58|35=b|34=8|49=Q027|52=20190704-17:38:53.362|56=XCD13|117=4|10=087|8=FIX.4.4|9=108|35=3|34=9|49=Q027|52=20190704-17:38:53.364|56=XCD13|45=7|58=Tag appears more than once|371=106|372=W|373=13|10=064|8=FIX.4.4|9=102|35=3|34=10|49=Q027|52=20190704-17:38:53.396|56=XCD13|45=8|58=Required tag missing|371=117|372=i|373=1|10=117|8=FIX.4.4|9=59|35=b|34=11|49=Q027|52=20190704-17:38:57.327|56=XCD13|117=5|10=136|8=FIX.4.4|9=103|35=3|34=12|49=Q027|52=20190704-17:38:57.330|56=XCD13|45=10|58=Required tag missing|371=117|372=i|373=1|10=153|8=FIX.4.4|9=103|35=3|34=13|49=Q027|52=20190704-17:38:57.405|56=XCD13|45=11|58=Required tag missing|371=117|372=i|373=1|10=158|8=FIX.4.4|9=59|35=b|34=14|49=Q027|52=20190704-17:39:02.405|56=XCD13|117=6|10=128|8=FIX.4.4|9=103|35=3|34=15|49=Q027|52=20190704-17:39:02.417|56=XCD13|45=13|58=Required tag missing|371=117|372=i|373=1|10=156|8=FIX.4.4|9=59|35=b|34=16|49=Q027|52=20190704-17:39:09.954|56=XCD13|117=7|10=147|8=FIX.4.4|9=59|35=b|34=17|49=Q027|52=20190704-17:39:12.388|56=XCD13|117=8|10=144|8=FIX.4.4|9=59|35=b|34=18|49=Q027|52=20190704-17:39:21.502|56=XCD13|117=9|10=134|8=FIX.4.4|9=60|35=b|34=19|49=Q027|52=20190704-17:39:36.707|56=XCD13|117=10|10=180|8=FIX.4.4|9=60|35=b|34=20|49=Q027|52=20190704-17:39:43.379|56=XCD13|117=11|10=176|8=FIX.4.4|9=103|35=3|34=21|49=Q027|52=20190704-17:39:43.897|56=XCD13|45=19|58=Required tag missing|371=117|372=i|373=1|10=176|8=FIX.4.4|9=60|35=b|34=22|49=Q027|52=20190704-17:39:54.518|56=XCD13|117=12|10=176|8=FIX.4.4|9=103|35=3|34=23|49=Q027|52=20190704-17:39:54.911|56=XCD13|45=21|58=Required tag missing|371=117|372=i|373=1|10=160|8=FIX.4.4|9=60|35=b|34=24|49=Q027|52=20190704-17:40:00.163|56=XCD13|117=13|10=158|8=FIX.4.4|9=110|35=3|34=25|49=Q027|52=20190704-17:40:00.164|56=XCD13|45=23|58=Tag appears more than once|371=106|372=W|373=13|10=132|8=FIX.4.4|9=60|35=b|34=26|49=Q027|52=20190704-17:40:03.945|56=XCD13|117=14|10=172|8=FIX.4.4|9=110|35=3|34=27|49=Q027|52=20190704-17:40:03.955|56=XCD13|45=25|58=Tag appears more than once|371=106|372=W|373=13|10=147|8=FIX.4.4|9=60|35=b|34=28|49=Q027|52=20190704-17:40:22.900|56=XCD13|117=15|10=167|8=FIX.4.4|9=59|35=b|34=29|49=Q027|52=20190704-17:40:25.840|56=XCD13|117=0|10=128|8=FIX.4.4|9=103|35=3|34=30|49=Q027|52=20190704-17:40:25.841|56=XCD13|45=28|58=Required tag missing|371=117|372=i|373=1|10=157|8=FIX.4.4|9=103|35=3|34=31|49=Q027|52=20190704-17:40:25.858|56=XCD13|45=29|58=Required tag missing|371=117|372=i|373=1|10=167|8=FIX.4.4|9=103|35=3|34=32|49=Q027|52=20190704-17:40:25.883|56=XCD13|45=30|58=Required tag missing|371=117|372=i|373=1|10=158|8=FIX.4.4|9=59|35=b|34=33|49=Q027|52=20190704-17:40:32.713|56=XCD13|117=1|10=121|8=FIX.4.4|9=59|35=b|34=34|49=Q027|52=20190704-17:40:33.797|56=XCD13|117=2|10=136|8=FIX.4.4|9=103|35=3|34=35|49=Q027|52=20190704-17:40:33.850|56=XCD13|45=33|58=Required tag missing|371=117|372=i|373=1|10=157|8=FIX.4.4|9=103|35=3|34=36|49=Q027|52=20190704-17:40:34.573|56=XCD13|45=34|58=Required tag missing|371=117|372=i|373=1|10=162|8=FIX.4.4|9=59|35=b|34=37|49=Q027|52=20190704-17:40:38.430|56=XCD13|117=3|10=129|8=FIX.4.4|9=103|35=3|34=38|49=Q027|52=20190704-17:40:38.430|56=XCD13|45=36|58=Required tag missing|371=117|372=i|373=1|10=162|8=FIX.4.4|9=103|35=3|34=39|49=Q027|52=20190704-17:40:38.430|56=XCD13|45=37|58=Required tag missing|371=117|372=i|373=1|10=164|8=FIX.4.4|9=103|35=3|34=40|49=Q027|52=20190704-17:40:38.485|56=XCD13|45=38|58=Required tag missing|371=117|372=i|373=1|10=167|8=FIX.4.4|9=103|35=3|34=41|49=Q027|52=20190704-17:40:38.523|56=XCD13|45=39|58=Required tag missing|371=117|372=i|373=1|10=162|8=FIX.4.4|9=59|35=b|34=42|49=Q027|52=20190704-17:40:41.732|56=XCD13|117=4|10=125|8=FIX.4.4|9=103|35=3|34=43|49=Q027|52=20190704-17:40:42.581|56=XCD13|45=41|58=Required tag missing|371=117|372=i|373=1|10=156|8=FIX.4.4|9=59|35=b|34=44|49=Q027|52=20190704-17:40:43.929|56=XCD13|117=5|10=138|8=FIX.4.4|9=103|35=3|34=45|49=Q027|52=20190704-17:40:43.930|56=XCD13|45=43|58=Required tag missing|371=117|372=i|373=1|10=159|8=FIX.4.4|9=59|35=b|34=46|49=Q027|52=20190704-17:40:47.002|56=XCD13|117=6|10=127|8=FIX.4.4|9=103|35=3|34=47|49=Q027|52=20190704-17:40:47.756|56=XCD13|45=45|58=Required tag missing|371=117|372=i|373=1|10=173|8=FIX.4.4|9=59|35=b|34=48|49=Q027|52=20190704-17:40:53.888|56=XCD13|117=7|10=149|8=FIX.4.4|9=59|35=b|34=49|49=Q027|52=20190704-17:40:57.640|56=XCD13|117=8|10=141|8=FIX.4.4|9=103|35=3|34=50|49=Q027|52=20190704-17:40:57.642|56=XCD13|45=48|58=Required tag missing|371=117|372=i|373=1|10=165|8=FIX.4.4|9=103|35=3|34=51|49=Q027|52=20190704-17:40:57.710|56=XCD13|45=49|58=Required tag missing|371=117|372=i|373=1|10=163|8=FIX.4.4|9=103|35=3|34=52|49=Q027|52=20190704-17:40:58.038|56=XCD13|45=50|58=Required tag missing|371=117|372=i|373=1|10=160|8=FIX.4.4|9=59|35=b|34=53|49=Q027|52=20190704-17:41:03.245|56=XCD13|117=9|10=130|8=FIX.4.4|9=60|35=b|34=54|49=Q027|52=20190704-17:41:06.988|56=XCD13|117=10|10=180|8=FIX.4.4|9=103|35=3|34=55|49=Q027|52=20190704-17:41:07.103|56=XCD13|45=53|58=Required tag missing|371=117|372=i|373=1|10=154|8=FIX.4.4|9=60|35=b|34=56|49=Q027|52=20190704-17:41:09.177|56=XCD13|117=11|10=176|8=FIX.4.4|9=60|35=b|34=57|49=Q027|52=20190704-17:41:18.810|56=XCD13|117=12|10=172|8=FIX.4.4|9=60|35=b|34=58|49=Q027|52=20190704-17:41:34.329|56=XCD13|117=13|10=177|8=FIX.4.4|9=60|35=b|34=59|49=Q027|52=20190704-17:41:47.729|56=XCD13|117=14|10=187|8=FIX.4.4|9=103|35=3|34=60|49=Q027|52=20190704-17:41:47.740|56=XCD13|45=58|58=Required tag missing|371=117|372=i|373=1|10=166|8=FIX.4.4|9=60|35=b|34=61|49=Q027|52=20190704-17:42:00.889|56=XCD13|117=15|10=178|8=FIX.4.4|9=59|35=b|34=62|49=Q027|52=20190704-17:42:01.919|56=XCD13|117=0|10=128|8=FIX.4.4|9=103|35=3|34=63|49=Q027|52=20190704-17:42:02.581|56=XCD13|45=61|58=Required tag missing|371=117|372=i|373=1|10=158|8=FIX.4.4|9=59|35=b|34=64|49=Q027|52=20190704-17:42:05.748|56=XCD13|117=1|10=135|8=FIX.4.4|9=59|35=b|34=65|49=Q027|52=20190704-17:42:15.178|56=XCD13|117=2|10=135|8=FIX.4.4|9=103|35=3|34=66|49=Q027|52=20190704-17:42:16.070|56=XCD13|45=64|58=Required tag missing|371=117|372=i|373=1|10=162|8=FIX.4.4|9=59|35=b|34=67|49=Q027|52=20190704-17:42:18.319|56=XCD13|117=3|10=138|8=FIX.4.4|9=103|35=3|34=68|49=Q027|52=20190704-17:42:18.519|56=XCD13|45=66|58=Required tag missing|371=117|372=i|373=1|10=176|8=FIX.4.4|9=103|35=3|34=69|49=Q027|52=20190704-17:42:18.605|56=XCD13|45=67|58=Required tag missing|371=117|372=i|373=1|10=174|8=FIX.4.4|9=59|35=b|34=70|49=Q027|52=20190704-17:42:19.360|56=XCD13|117=4|10=130|8=FIX.4.4|9=103|35=3|34=71|49=Q027|52=20190704-17:42:20.333|56=XCD13|45=69|58=Required tag missing|371=117|372=i|373=1|10=160|8=FIX.4.4|9=103|35=3|34=72|49=Q027|52=20190704-17:42:20.352|56=XCD13|45=70|58=Required tag missing|371=117|372=i|373=1|10=154|8=FIX.4.4|9=103|35=3|34=73|49=Q027|52=20190704-17:42:20.353|56=XCD13|45=71|58=Required tag missing|371=117|372=i|373=1|10=157|8=FIX.4.4|9=103|35=3|34=74|49=Q027|52=20190704-17:42:20.353|56=XCD13|45=72|58=Required tag missing|371=117|372=i|373=1|10=159|8=FIX.4.4|9=59|35=b|34=75|49=Q027|52=20190704-17:42:20.381|56=XCD13|117=5|10=131|8=FIX.4.4|9=103|35=3|34=76|49=Q027|52=20190704-17:42:20.402|56=XCD13|45=74|58=Required tag missing|371=117|372=i|373=1|10=158|8=FIX.4.4|9=103|35=3|34=77|49=Q027|52=20190704-17:42:20.944|56=XCD13|45=75|58=Required tag missing|371=117|372=i|373=1|10=171|8=FIX.4.4|9=103|35=3|34=78|49=Q027|52=20190704-17:42:21.130|56=XCD13|45=76|58=Required tag missing|371=117|372=i|373=1|10=161|8=FIX.4.4|9=103|35=3|34=79|49=Q027|52=20190704-17:42:21.143|56=XCD13|45=77|58=Required tag missing|371=117|372=i|373=1|10=167|8=FIX.4.4|9=103|35=3|34=80|49=Q027|52=20190704-17:42:21.250|56=XCD13|45=78|58=Required tag missing|371=117|372=i|373=1|10=159|8=FIX.4.4|9=59|35=b|34=81|49=Q027|52=20190704-17:42:21.397|56=XCD13|117=6|10=137|8=FIX.4.4|9=103|35=3|34=82|49=Q027|52=20190704-17:42:21.835|56=XCD13|45=80|58=Required tag missing|371=117|372=i|373=1|10=163|8=FIX.4.4|9=103|35=3|34=83|49=Q027|52=20190704-17:42:22.222|56=XCD13|45=81|58=Required tag missing|371=117|372=i|373=1|10=156|8=FIX.4.4|9=103|35=3|34=84|49=Q027|52=20190704-17:42:22.309|56=XCD13|45=82|58=Required tag missing|371=117|372=i|373=1|10=164|8=FIX.4.4|9=103|35=3|34=85|49=Q027|52=20190704-17:42:22.346|56=XCD13|45=83|58=Required tag missing|371=117|372=i|373=1|10=167|8=FIX.4.4|9=103|35=3|34=86|49=Q027|52=20190704-17:42:22.346|56=XCD13|45=84|58=Required tag missing|371=117|372=i|373=1|10=169|8=FIX.4.4|9=103|35=3|34=87|49=Q027|52=20190704-17:42:22.384|56=XCD13|45=85|58=Required tag missing|371=117|372=i|373=1|10=173|8=FIX.4.4|9=103|35=3|34=88|49=Q027|52=20190704-17:42:22.396|56=XCD13|45=86|58=Required tag missing|371=117|372=i|373=1|10=178|8=FIX.4.4|9=59|35=b|34=89|49=Q027|52=20190704-17:42:22.410|56=XCD13|117=7|10=133|8=FIX.4.4|9=103|35=3|34=90|49=Q027|52=20190704-17:42:22.441|56=XCD13|45=88|58=Required tag missing|371=117|372=i|373=1|10=164|8=FIX.4.4|9=103|35=3|34=91|49=Q027|52=20190704-17:42:22.462|56=XCD13|45=89|58=Required tag missing|371=117|372=i|373=1|10=169|8=FIX.4.4|9=103|35=3|34=92|49=Q027|52=20190704-17:42:22.477|56=XCD13|45=90|58=Required tag missing|371=117|372=i|373=1|10=168|8=FIX.4.4|9=103|35=3|34=93|49=Q027|52=20190704-17:42:22.521|56=XCD13|45=91|58=Required tag missing|371=117|372=i|373=1|10=160|8=FIX.4.4|9=103|35=3|34=94|49=Q027|52=20190704-17:42:22.531|56=XCD13|45=92|58=Required tag missing|371=117|372=i|373=1|10=163|8=FIX.4.4|9=103|35=3|34=95|49=Q027|52=20190704-17:42:22.544|56=XCD13|45=93|58=Required tag missing|371=117|372=i|373=1|10=169|8=FIX.4.4|9=103|35=3|34=96|49=Q027|52=20190704-17:42:22.608|56=XCD13|45=94|58=Required tag missing|371=117|372=i|373=1|10=172|8=FIX.4.4|9=103|35=3|34=97|49=Q027|52=20190704-17:42:22.647|56=XCD13|45=95|58=Required tag missing|371=117|372=i|373=1|10=177|8=FIX.4.4|9=103|35=3|34=98|49=Q027|52=20190704-17:42:22.688|56=XCD13|45=96|58=Required tag missing|371=117|372=i|373=1|10=184|8=FIX.4.4|9=103|35=3|34=99|49=Q027|52=20190704-17:42:22.701|56=XCD13|45=97|58=Required tag missing|371=117|372=i|373=1|10=172|8=FIX.4.4|9=104|35=3|34=100|49=Q027|52=20190704-17:42:22.732|56=XCD13|45=98|58=Required tag missing|371=117|372=i|373=1|10=209|8=FIX.4.4|9=104|35=3|34=101|49=Q027|52=20190704-17:42:22.754|56=XCD13|45=99|58=Required tag missing|371=117|372=i|373=1|10=215|8=FIX.4.4|9=105|35=3|34=102|49=Q027|52=20190704-17:42:22.826|56=XCD13|45=100|58=Required tag missing|371=117|372=i|373=1|10=248|8=FIX.4.4|9=105|35=3|34=103|49=Q027|52=20190704-17:42:22.860|56=XCD13|45=101|58=Required tag missing|371=117|372=i|373=1|10=248|8=FIX.4.4|9=105|35=3|34=104|49=Q027|52=20190704-17:42:22.885|56=XCD13|45=102|58=Required tag missing|371=117|372=i|373=1|10=001|8=FIX.4.4|9=105|35=3|34=105|49=Q027|52=20190704-17:42:22.897|56=XCD13|45=103|58=Required tag missing|371=117|372=i|373=1|10=006|8=FIX.4.4|9=105|35=3|34=106|49=Q027|52=20190704-17:42:22.916|56=XCD13|45=104|58=Required tag missing|371=117|372=i|373=1|10=000|8=FIX.4.4|9=105|35=3|34=107|49=Q027|52=20190704-17:42:22.921|56=XCD13|45=105|58=Required tag missing|371=117|372=i|373=1|10=254|8=FIX.4.4|9=105|35=3|34=108|49=Q027|52=20190704-17:42:22.939|56=XCD13|45=106|58=Required tag missing|371=117|372=i|373=1|10=009|8=FIX.4.4|9=105|35=3|34=109|49=Q027|52=20190704-17:42:22.995|56=XCD13|45=107|58=Required tag missing|371=117|372=i|373=1|10=013|8=FIX.4.4|9=105|35=3|34=110|49=Q027|52=20190704-17:42:23.002|56=XCD13|45=108|58=Required tag missing|371=117|372=i|373=1|10=242|8=FIX.4.4|9=105|35=3|34=111|49=Q027|52=20190704-17:42:23.012|56=XCD13|45=109|58=Required tag missing|371=117|372=i|373=1|10=245|8=FIX.4.4|9=105|35=3|34=112|49=Q027|52=20190704-17:42:23.021|56=XCD13|45=110|58=Required tag missing|371=117|372=i|373=1|10=238|8=FIX.4.4|9=105|35=3|34=113|49=Q027|52=20190704-17:42:23.034|56=XCD13|45=111|58=Required tag missing|371=117|372=i|373=1|10=244|8=FIX.4.4|9=105|35=3|34=114|49=Q027|52=20190704-17:42:23.045|56=XCD13|45=112|58=Required tag missing|371=117|372=i|373=1|10=248|8=FIX.4.4|9=105|35=3|34=115|49=Q027|52=20190704-17:42:23.085|56=XCD13|45=113|58=Required tag missing|371=117|372=i|373=1|10=254|8=FIX.4.4|9=105|35=3|34=116|49=Q027|52=20190704-17:42:23.143|56=XCD13|45=114|58=Required tag missing|371=117|372=i|373=1|10=251|8=FIX.4.4|9=105|35=3|34=117|49=Q027|52=20190704-17:42:23.177|56=XCD13|45=115|58=Required tag missing|371=117|372=i|373=1|10=004|8=FIX.4.4|9=105|35=3|34=118|49=Q027|52=20190704-17:42:23.196|56=XCD13|45=116|58=Required tag missing|371=117|372=i|373=1|10=007|8=FIX.4.4|9=105|35=3|34=119|49=Q027|52=20190704-17:42:23.198|56=XCD13|45=117|58=Required tag missing|371=117|372=i|373=1|10=011|8=FIX.4.4|9=105|35=3|34=120|49=Q027|52=20190704-17:42:23.251|56=XCD13|45=118|58=Required tag missing|371=117|372=i|373=1|10=250|8=FIX.4.4|9=105|35=3|34=121|49=Q027|52=20190704-17:42:23.254|56=XCD13|45=119|58=Required tag missing|371=117|372=i|373=1|10=255|8=FIX.4.4|9=105|35=3|34=122|49=Q027|52=20190704-17:42:23.289|56=XCD13|45=120|58=Required tag missing|371=117|372=i|373=1|10=000|8=FIX.4.4|9=105|35=3|34=123|49=Q027|52=20190704-17:42:23.333|56=XCD13|45=121|58=Required tag missing|371=117|372=i|373=1|10=248|8=FIX.4.4|9=105|35=3|34=124|49=Q027|52=20190704-17:42:23.357|56=XCD13|45=122|58=Required tag missing|371=117|372=i|373=1|10=000|8=FIX.4.4|9=60|35=b|34=125|49=Q027|52=20190704-17:42:23.511|56=XCD13|117=8|10=168|8=FIX.4.4|9=105|35=3|34=126|49=Q027|52=20190704-17:42:23.524|56=XCD13|45=124|58=Required tag missing|371=117|372=i|373=1|10=000|8=FIX.4.4|9=105|35=3|34=127|49=Q027|52=20190704-17:42:23.528|56=XCD13|45=125|58=Required tag missing|371=117|372=i|373=1|10=006|8=FIX.4.4|9=105|35=3|34=128|49=Q027|52=20190704-17:42:23.534|56=XCD13|45=126|58=Required tag missing|371=117|372=i|373=1|10=005|8=FIX.4.4|9=105|35=3|34=129|49=Q027|52=20190704-17:42:23.552|56=XCD13|45=127|58=Required tag missing|371=117|372=i|373=1|10=007|8=FIX.4.4|9=105|35=3|34=130|49=Q027|52=20190704-17:42:23.563|56=XCD13|45=128|58=Required tag missing|371=117|372=i|373=1|10=002|8=FIX.4.4|9=105|35=3|34=131|49=Q027|52=20190704-17:42:23.606|56=XCD13|45=129|58=Required tag missing|371=117|372=i|373=1|10=002|8=FIX.4.4|9=105|35=3|34=132|49=Q027|52=20190704-17:42:23.786|56=XCD13|45=130|58=Required tag missing|371=117|372=i|373=1|10=004|8=FIX.4.4|9=105|35=3|34=133|49=Q027|52=20190704-17:42:23.841|56=XCD13|45=131|58=Required tag missing|371=117|372=i|373=1|10=254|8=FIX.4.4|9=105|35=3|34=134|49=Q027|52=20190704-17:42:23.904|56=XCD13|45=132|58=Required tag missing|371=117|372=i|373=1|10=000|8=FIX.4.4|9=105|35=3|34=135|49=Q027|52=20190704-17:42:24.023|56=XCD13|45=133|58=Required tag missing|371=117|372=i|373=1|10=251|8=FIX.4.4|9=105|35=3|34=136|49=Q027|52=20190704-17:42:24.074|56=XCD13|45=134|58=Required tag missing|371=117|372=i|373=1|10=003|8=FIX.4.4|9=105|35=3|34=137|49=Q027|52=20190704-17:42:24.203|56=XCD13|45=135|58=Required tag missing|371=117|372=i|373=1|10=255|8=FIX.4.4|9=105|35=3|34=138|49=Q027|52=20190704-17:42:24.206|56=XCD13|45=136|58=Required tag missing|371=117|372=i|373=1|10=004|8=FIX.4.4|9=105|35=3|34=139|49=Q027|52=20190704-17:42:24.231|56=XCD13|45=137|58=Required tag missing|371=117|372=i|373=1|10=004|8=FIX.4.4|9=105|35=3|34=140|49=Q027|52=20190704-17:42:24.240|56=XCD13|45=138|58=Required tag missing|371=117|372=i|373=1|10=253|8=FIX.4.4|9=105|35=3|34=141|49=Q027|52=20190704-17:42:24.258|56=XCD13|45=139|58=Required tag missing|371=117|372=i|373=1|10=008|8=FIX.4.4|9=105|35=3|34=142|49=Q027|52=20190704-17:42:24.260|56=XCD13|45=140|58=Required tag missing|371=117|372=i|373=1|10=250|8=FIX.4.4|9=105|35=3|34=143|49=Q027|52=20190704-17:42:24.261|56=XCD13|45=141|58=Required tag missing|371=117|372=i|373=1|10=253|8=FIX.4.4|9=105|35=3|34=144|49=Q027|52=20190704-17:42:24.268|56=XCD13|45=142|58=Required tag missing|371=117|372=i|373=1|10=006|8=FIX.4.4|9=105|35=3|34=145|49=Q027|52=20190704-17:42:24.270|56=XCD13|45=143|58=Required tag missing|371=117|372=i|373=1|10=001|8=FIX.4.4|9=105|35=3|34=146|49=Q027|52=20190704-17:42:24.271|56=XCD13|45=144|58=Required tag missing|371=117|372=i|373=1|10=004|8=FIX.4.4|9=105|35=3|34=147|49=Q027|52=20190704-17:42:24.273|56=XCD13|45=145|58=Required tag missing|371=117|372=i|373=1|10=008|8=FIX.4.4|9=105|35=3|34=148|49=Q027|52=20190704-17:42:24.274|56=XCD13|45=146|58=Required tag missing|371=117|372=i|373=1|10=011|8=FIX.4.4|9=105|35=3|34=149|49=Q027|52=20190704-17:42:24.284|56=XCD13|45=147|58=Required tag missing|371=117|372=i|373=1|10=014|8=FIX.4.4|9=105|35=3|34=150|49=Q027|52=20190704-17:42:24.289|56=XCD13|45=148|58=Required tag missing|371=117|372=i|373=1|10=012|8=FIX.4.4|9=105|35=3|34=151|49=Q027|52=20190704-17:42:24.324|56=XCD13|45=149|58=Required tag missing|371=117|372=i|373=1|10=004|8=FIX.4.4|9=105|35=3|34=152|49=Q027|52=20190704-17:42:24.357|56=XCD13|45=150|58=Required tag missing|371=117|372=i|373=1|10=003|8=FIX.4.4|9=105|35=3|34=153|49=Q027|52=20190704-17:42:24.385|56=XCD13|45=151|58=Required tag missing|371=117|372=i|373=1|10=006|8=FIX.4.4|9=105|35=3|34=154|49=Q027|52=20190704-17:42:24.483|56=XCD13|45=152|58=Required tag missing|371=117|372=i|373=1|10=007|8=FIX.4.4|9=105|35=3|34=155|49=Q027|52=20190704-17:42:24.492|56=XCD13|45=153|58=Required tag missing|371=117|372=i|373=1|10=009|8=FIX.4.4|9=105|35=3|34=156|49=Q027|52=20190704-17:42:24.503|56=XCD13|45=154|58=Required tag missing|371=117|372=i|373=1|10=004|8=FIX.4.4|9=105|35=3|34=157|49=Q027|52=20190704-17:42:24.507|56=XCD13|45=155|58=Required tag missing|371=117|372=i|373=1|10=010|8=FIX.4.4|9=60|35=b|34=158|49=Q027|52=20190704-17:42:24.660|56=XCD13|117=9|10=181|8=FIX.4.4|9=105|35=3|34=159|49=Q027|52=20190704-17:42:24.667|56=XCD13|45=157|58=Required tag missing|371=117|372=i|373=1|10=021|8=FIX.4.4|9=105|35=3|34=160|49=Q027|52=20190704-17:42:24.671|56=XCD13|45=158|58=Required tag missing|371=117|372=i|373=1|10=009|8=FIX.4.4|9=105|35=3|34=161|49=Q027|52=20190704-17:42:24.681|56=XCD13|45=159|58=Required tag missing|371=117|372=i|373=1|10=012|8=FIX.4.4|9=105|35=3|34=162|49=Q027|52=20190704-17:42:24.687|56=XCD13|45=160|58=Required tag missing|371=117|372=i|373=1|10=011|8=FIX.4.4|9=105|35=3|34=163|49=Q027|52=20190704-17:42:24.693|56=XCD13|45=161|58=Required tag missing|371=117|372=i|373=1|10=010|8=FIX.4.4|9=105|35=3|34=164|49=Q027|52=20190704-17:42:24.713|56=XCD13|45=162|58=Required tag missing|371=117|372=i|373=1|10=005|8=FIX.4.4|9=105|35=3|34=165|49=Q027|52=20190704-17:42:24.740|56=XCD13|45=163|58=Required tag missing|371=117|372=i|373=1|10=007|8=FIX.4.4|9=105|35=3|34=166|49=Q027|52=20190704-17:42:24.752|56=XCD13|45=164|58=Required tag missing|371=117|372=i|373=1|10=012|8=FIX.4.4|9=105|35=3|34=167|49=Q027|52=20190704-17:42:24.753|56=XCD13|45=165|58=Required tag missing|371=117|372=i|373=1|10=015|8=FIX.4.4|9=105|35=3|34=168|49=Q027|52=20190704-17:42:24.774|56=XCD13|45=166|58=Required tag missing|371=117|372=i|373=1|10=020|8=FIX.4.4|9=105|35=3|34=169|49=Q027|52=20190704-17:42:24.797|56=XCD13|45=167|58=Required tag missing|371=117|372=i|373=1|10=027|8=FIX.4.4|9=105|35=3|34=170|49=Q027|52=20190704-17:42:24.802|56=XCD13|45=168|58=Required tag missing|371=117|372=i|373=1|10=007|8=FIX.4.4|9=105|35=3|34=171|49=Q027|52=20190704-17:42:24.840|56=XCD13|45=169|58=Required tag missing|371=117|372=i|373=1|10=011|8=FIX.4.4|9=105|35=3|34=172|49=Q027|52=20190704-17:42:24.842|56=XCD13|45=170|58=Required tag missing|371=117|372=i|373=1|10=006|8=FIX.4.4|9=105|35=3|34=173|49=Q027|52=20190704-17:42:24.843|56=XCD13|45=171|58=Required tag missing|371=117|372=i|373=1|10=009|8=FIX.4.4|9=105|35=3|34=174|49=Q027|52=20190704-17:42:24.882|56=XCD13|45=172|58=Required tag missing|371=117|372=i|373=1|10=014|8=FIX.4.4|9=61|35=b|34=175|49=Q027|52=20190704-17:42:25.835|56=XCD13|117=10|10=226|8=FIX.4.4|9=105|35=3|34=176|49=Q027|52=20190704-17:42:25.991|56=XCD13|45=174|58=Required tag missing|371=117|372=i|373=1|10=020|8=FIX.4.4|9=105|35=3|34=177|49=Q027|52=20190704-17:42:25.992|56=XCD13|45=175|58=Required tag missing|371=117|372=i|373=1|10=023|8=FIX.4.4|9=105|35=3|34=178|49=Q027|52=20190704-17:42:25.992|56=XCD13|45=176|58=Required tag missing|371=117|372=i|373=1|10=025|8=FIX.4.4|9=105|35=3|34=179|49=Q027|52=20190704-17:42:26.002|56=XCD13|45=177|58=Required tag missing|371=117|372=i|373=1|10=010|8=FIX.4.4|9=105|35=3|34=180|49=Q027|52=20190704-17:42:26.043|56=XCD13|45=178|58=Required tag missing|371=117|372=i|373=1|10=008|8=FIX.4.4|9=105|35=3|34=181|49=Q027|52=20190704-17:42:26.054|56=XCD13|45=179|58=Required tag missing|371=117|372=i|373=1|10=012|8=FIX.4.4|9=105|35=3|34=182|49=Q027|52=20190704-17:42:26.078|56=XCD13|45=180|58=Required tag missing|371=117|372=i|373=1|10=011|8=FIX.4.4|9=105|35=3|34=183|49=Q027|52=20190704-17:42:26.092|56=XCD13|45=181|58=Required tag missing|371=117|372=i|373=1|10=009|8=FIX.4.4|9=105|35=3|34=184|49=Q027|52=20190704-17:42:26.196|56=XCD13|45=182|58=Required tag missing|371=117|372=i|373=1|10=016|8=FIX.4.4|9=105|35=3|34=185|49=Q027|52=20190704-17:42:26.245|56=XCD13|45=183|58=Required tag missing|371=117|372=i|373=1|10=013|8=FIX.4.4|9=105|35=3|34=186|49=Q027|52=20190704-17:42:26.289|56=XCD13|45=184|58=Required tag missing|371=117|372=i|373=1|10=023|8=FIX.4.4|9=105|35=3|34=187|49=Q027|52=20190704-17:42:26.334|56=XCD13|45=185|58=Required tag missing|371=117|372=i|373=1|10=016|8=FIX.4.4|9=105|35=3|34=188|49=Q027|52=20190704-17:42:26.383|56=XCD13|45=186|58=Required tag missing|371=117|372=i|373=1|10=022|8=FIX.4.4|9=105|35=3|34=189|49=Q027|52=20190704-17:42:26.478|56=XCD13|45=187|58=Required tag missing|371=117|372=i|373=1|10=029|8=FIX.4.4|9=105|35=3|34=190|49=Q027|52=20190704-17:42:26.485|56=XCD13|45=188|58=Required tag missing|371=117|372=i|373=1|10=020|8=FIX.4.4|9=105|35=3|34=191|49=Q027|52=20190704-17:42:26.508|56=XCD13|45=189|58=Required tag missing|371=117|372=i|373=1|10=018|8=FIX.4.4|9=105|35=3|34=192|49=Q027|52=20190704-17:42:26.520|56=XCD13|45=190|58=Required tag missing|371=117|372=i|373=1|10=005|8=FIX.4.4|9=105|35=3|34=193|49=Q027|52=20190704-17:42:26.541|56=XCD13|45=191|58=Required tag missing|371=117|372=i|373=1|10=010|8=FIX.4.4|9=105|35=3|34=194|49=Q027|52=20190704-17:42:26.542|56=XCD13|45=192|58=Required tag missing|371=117|372=i|373=1|10=013|8=FIX.4.4|9=105|35=3|34=195|49=Q027|52=20190704-17:42:26.543|56=XCD13|45=193|58=Required tag missing|371=117|372=i|373=1|10=016|8=FIX.4.4|9=105|35=3|34=196|49=Q027|52=20190704-17:42:26.551|56=XCD13|45=194|58=Required tag missing|371=117|372=i|373=1|10=017|8=FIX.4.4|9=105|35=3|34=197|49=Q027|52=20190704-17:42:26.551|56=XCD13|45=195|58=Required tag missing|371=117|372=i|373=1|10=019|8=FIX.4.4|9=105|35=3|34=198|49=Q027|52=20190704-17:42:26.551|56=XCD13|45=196|58=Required tag missing|371=117|372=i|373=1|10=021|8=FIX.4.4|9=105|35=3|34=199|49=Q027|52=20190704-17:42:26.552|56=XCD13|45=197|58=Required tag missing|371=117|372=i|373=1|10=024|8=FIX.4.4|9=105|35=3|34=200|49=Q027|52=20190704-17:42:26.560|56=XCD13|45=198|58=Required tag missing|371=117|372=i|373=1|10=007|8=FIX.4.4|9=105|35=3|34=201|49=Q027|52=20190704-17:42:26.564|56=XCD13|45=199|58=Required tag missing|371=117|372=i|373=1|10=013|8=FIX.4.4|9=105|35=3|34=202|49=Q027|52=20190704-17:42:26.567|56=XCD13|45=200|58=Required tag missing|371=117|372=i|373=1|10=000|8=FIX.4.4|9=105|35=3|34=203|49=Q027|52=20190704-17:42:26.569|56=XCD13|45=201|58=Required tag missing|371=117|372=i|373=1|10=004|8=FIX.4.4|9=105|35=3|34=204|49=Q027|52=20190704-17:42:26.577|56=XCD13|45=202|58=Required tag missing|371=117|372=i|373=1|10=005|8=FIX.4.4|9=105|35=3|34=205|49=Q027|52=20190704-17:42:26.577|56=XCD13|45=203|58=Required tag missing|371=117|372=i|373=1|10=007|8=FIX.4.4|9=105|35=3|34=206|49=Q027|52=20190704-17:42:26.577|56=XCD13|45=204|58=Required tag missing|371=117|372=i|373=1|10=009|8=FIX.4.4|9=105|35=3|34=207|49=Q027|52=20190704-17:42:26.581|56=XCD13|45=205|58=Required tag missing|371=117|372=i|373=1|10=006|8=FIX.4.4|9=105|35=3|34=208|49=Q027|52=20190704-17:42:26.686|56=XCD13|45=206|58=Required tag missing|371=117|372=i|373=1|10=014|8=FIX.4.4|9=105|35=3|34=209|49=Q027|52=20190704-17:42:26.686|56=XCD13|45=207|58=Required tag missing|371=117|372=i|373=1|10=016|8=FIX.4.4|9=105|35=3|34=210|49=Q027|52=20190704-17:42:26.686|56=XCD13|45=208|58=Required tag missing|371=117|372=i|373=1|10=009|8=FIX.4.4|9=105|35=3|34=211|49=Q027|52=20190704-17:42:26.686|56=XCD13|45=209|58=Required tag missing|371=117|372=i|373=1|10=011|8=FIX.4.4|9=105|35=3|34=212|49=Q027|52=20190704-17:42:26.686|56=XCD13|45=210|58=Required tag missing|371=117|372=i|373=1|10=004|8=FIX.4.4|9=105|35=3|34=213|49=Q027|52=20190704-17:42:26.687|56=XCD13|45=211|58=Required tag missing|371=117|372=i|373=1|10=007|8=FIX.4.4|9=105|35=3|34=214|49=Q027|52=20190704-17:42:26.687|56=XCD13|45=212|58=Required tag missing|371=117|372=i|373=1|10=009|8=FIX.4.4|9=105|35=3|34=215|49=Q027|52=20190704-17:42:26.687|56=XCD13|45=213|58=Required tag missing|371=117|372=i|373=1|10=011|8=FIX.4.4|9=105|35=3|34=216|49=Q027|52=20190704-17:42:26.691|56=XCD13|45=214|58=Required tag missing|371=117|372=i|373=1|10=008|8=FIX.4.4|9=105|35=3|34=217|49=Q027|52=20190704-17:42:26.697|56=XCD13|45=215|58=Required tag missing|371=117|372=i|373=1|10=016|8=FIX.4.4|9=105|35=3|34=218|49=Q027|52=20190704-17:42:26.730|56=XCD13|45=216|58=Required tag missing|371=117|372=i|373=1|10=006|8=FIX.4.4|9=105|35=3|34=219|49=Q027|52=20190704-17:42:26.762|56=XCD13|45=217|58=Required tag missing|371=117|372=i|373=1|10=013|8=FIX.4.4|9=105|35=3|34=220|49=Q027|52=20190704-17:42:26.773|56=XCD13|45=218|58=Required tag missing|371=117|372=i|373=1|10=008|8=FIX.4.4|9=61|35=b|34=221|49=Q027|52=20190704-17:42:27.431|56=XCD13|117=11|10=213|8=FIX.4.4|9=105|35=3|34=222|49=Q027|52=20190704-17:42:27.534|56=XCD13|45=220|58=Required tag missing|371=117|372=i|373=1|10=255|8=FIX.4.4|9=105|35=3|34=223|49=Q027|52=20190704-17:42:27.862|56=XCD13|45=221|58=Required tag missing|371=117|372=i|373=1|10=005|8=FIX.4.4|9=105|35=3|34=224|49=Q027|52=20190704-17:42:27.873|56=XCD13|45=222|58=Required tag missing|371=117|372=i|373=1|10=009|8=FIX.4.4|9=105|35=3|34=225|49=Q027|52=20190704-17:42:28.028|56=XCD13|45=223|58=Required tag missing|371=117|372=i|373=1|10=004|8=FIX.4.4|9=61|35=b|34=226|49=Q027|52=20190704-17:42:28.439|56=XCD13|117=12|10=228|8=FIX.4.4|9=105|35=3|34=227|49=Q027|52=20190704-17:42:28.441|56=XCD13|45=225|58=Required tag missing|371=117|372=i|373=1|10=007|8=FIX.4.4|9=105|35=3|34=228|49=Q027|52=20190704-17:42:28.458|56=XCD13|45=226|58=Required tag missing|371=117|372=i|373=1|10=017|8=FIX.4.4|9=105|35=3|34=229|49=Q027|52=20190704-17:42:28.509|56=XCD13|45=227|58=Required tag missing|371=117|372=i|373=1|10=016|8=FIX.4.4|9=105|35=3|34=230|49=Q027|52=20190704-17:42:28.554|56=XCD13|45=228|58=Required tag missing|371=117|372=i|373=1|10=009|8=FIX.4.4|9=105|35=3|34=231|49=Q027|52=20190704-17:42:28.554|56=XCD13|45=229|58=Required tag missing|371=117|372=i|373=1|10=011|8=FIX.4.4|9=105|35=3|34=232|49=Q027|52=20190704-17:42:28.560|56=XCD13|45=230|58=Required tag missing|371=117|372=i|373=1|10=001|8=FIX.4.4|9=105|35=3|34=233|49=Q027|52=20190704-17:42:28.565|56=XCD13|45=231|58=Required tag missing|371=117|372=i|373=1|10=008|8=FIX.4.4|9=105|35=3|34=234|49=Q027|52=20190704-17:42:28.566|56=XCD13|45=232|58=Required tag missing|371=117|372=i|373=1|10=011|8=FIX.4.4|9=105|35=3|34=235|49=Q027|52=20190704-17:42:28.568|56=XCD13|45=233|58=Required tag missing|371=117|372=i|373=1|10=015|8=FIX.4.4|9=105|35=3|34=236|49=Q027|52=20190704-17:42:28.625|56=XCD13|45=234|58=Required tag missing|371=117|372=i|373=1|10=011|8=FIX.4.4|9=105|35=3|34=237|49=Q027|52=20190704-17:42:28.625|56=XCD13|45=235|58=Required tag missing|371=117|372=i|373=1|10=013|8=FIX.4.4|9=105|35=3|34=238|49=Q027|52=20190704-17:42:28.640|56=XCD13|45=236|58=Required tag missing|371=117|372=i|373=1|10=012|8=FIX.4.4|9=105|35=3|34=239|49=Q027|52=20190704-17:42:28.714|56=XCD13|45=237|58=Required tag missing|371=117|372=i|373=1|10=016|8=FIX.4.4|9=105|35=3|34=240|49=Q027|52=20190704-17:42:28.723|56=XCD13|45=238|58=Required tag missing|371=117|372=i|373=1|10=009|8=FIX.4.4|9=105|35=3|34=241|49=Q027|52=20190704-17:42:28.736|56=XCD13|45=239|58=Required tag missing|371=117|372=i|373=1|10=015|8=FIX.4.4|9=105|35=3|34=242|49=Q027|52=20190704-17:42:28.763|56=XCD13|45=240|58=Required tag missing|371=117|372=i|373=1|10=008|8=FIX.4.4|9=105|35=3|34=243|49=Q027|52=20190704-17:42:28.787|56=XCD13|45=241|58=Required tag missing|371=117|372=i|373=1|10=016|8=FIX.4.4|9=105|35=3|34=244|49=Q027|52=20190704-17:42:28.795|56=XCD13|45=242|58=Required tag missing|371=117|372=i|373=1|10=017|8=FIX.4.4|9=105|35=3|34=245|49=Q027|52=20190704-17:42:29.242|56=XCD13|45=243|58=Required tag missing|371=117|372=i|373=1|10=007|8=FIX.4.4|9=61|35=b|34=246|49=Q027|52=20190704-17:42:30.253|56=XCD13|117=13|10=218|8=FIX.4.4|9=105|35=3|34=247|49=Q027|52=20190704-17:42:30.253|56=XCD13|45=245|58=Required tag missing|371=117|372=i|373=1|10=005|8=FIX.4.4|9=105|35=3|34=248|49=Q027|52=20190704-17:42:30.254|56=XCD13|45=246|58=Required tag missing|371=117|372=i|373=1|10=008|8=FIX.4.4|9=105|35=3|34=249|49=Q027|52=20190704-17:42:30.254|56=XCD13|45=247|58=Required tag missing|371=117|372=i|373=1|10=010|8=FIX.4.4|9=105|35=3|34=250|49=Q027|52=20190704-17:42:30.278|56=XCD13|45=248|58=Required tag missing|371=117|372=i|373=1|10=009|8=FIX.4.4|9=105|35=3|34=251|49=Q027|52=20190704-17:42:30.284|56=XCD13|45=249|58=Required tag missing|371=117|372=i|373=1|10=008|8=FIX.4.4|9=105|35=3|34=252|49=Q027|52=20190704-17:42:31.116|56=XCD13|45=250|58=Required tag missing|371=117|372=i|373=1|10=252|8=FIX.4.4|9=105|35=3|34=253|49=Q027|52=20190704-17:42:31.127|56=XCD13|45=251|58=Required tag missing|371=117|372=i|373=1|10=000|8=FIX.4.4|9=105|35=3|34=254|49=Q027|52=20190704-17:42:31.127|56=XCD13|45=252|58=Required tag missing|371=117|372=i|373=1|10=002|8=FIX.4.4|9=105|35=3|34=255|49=Q027|52=20190704-17:42:31.138|56=XCD13|45=253|58=Required tag missing|371=117|372=i|373=1|10=006|8=FIX.4.4|9=105|35=3|34=256|49=Q027|52=20190704-17:42:31.177|56=XCD13|45=254|58=Required tag missing|371=117|372=i|373=1|10=011|8=FIX.4.4|9=105|35=3|34=257|49=Q027|52=20190704-17:42:31.180|56=XCD13|45=255|58=Required tag missing|371=117|372=i|373=1|10=007|8=FIX.4.4|9=105|35=3|34=258|49=Q027|52=20190704-17:42:31.182|56=XCD13|45=256|58=Required tag missing|371=117|372=i|373=1|10=011|8=FIX.4.4|9=105|35=3|34=259|49=Q027|52=20190704-17:42:31.208|56=XCD13|45=257|58=Required tag missing|371=117|372=i|373=1|10=012|8=FIX.4.4|9=105|35=3|34=260|49=Q027|52=20190704-17:42:31.210|56=XCD13|45=258|58=Required tag missing|371=117|372=i|373=1|10=254|8=FIX.4.4|9=105|35=3|34=261|49=Q027|52=20190704-17:42:31.220|56=XCD13|45=259|58=Required tag missing|371=117|372=i|373=1|10=001|8=FIX.4.4|9=105|35=3|34=262|49=Q027|52=20190704-17:42:31.307|56=XCD13|45=260|58=Required tag missing|371=117|372=i|373=1|10=000|8=FIX.4.4|9=105|35=3|34=263|49=Q027|52=20190704-17:42:31.307|56=XCD13|45=261|58=Required tag missing|371=117|372=i|373=1|10=002|8=FIX.4.4|9=61|35=b|34=264|49=Q027|52=20190704-17:42:31.336|56=XCD13|117=14|10=222|8=FIX.4.4|9=105|35=3|34=265|49=Q027|52=20190704-17:42:31.366|56=XCD13|45=263|58=Required tag missing|371=117|372=i|373=1|10=011|8=FIX.4.4|9=105|35=3|34=266|49=Q027|52=20190704-17:42:31.631|56=XCD13|45=264|58=Required tag missing|371=117|372=i|373=1|10=008|8=FIX.4.4|9=61|35=b|34=267|49=Q027|52=20190704-17:42:32.557|56=XCD13|117=15|10=232|8=FIX.4.4|9=105|35=3|34=268|49=Q027|52=20190704-17:42:32.851|56=XCD13|45=266|58=Required tag missing|371=117|372=i|373=1|10=017|8=FIX.4.4|9=105|35=3|34=269|49=Q027|52=20190704-17:42:32.969|56=XCD13|45=267|58=Required tag missing|371=117|372=i|373=1|10=029|8=FIX.4.4|9=105|35=3|34=270|49=Q027|52=20190704-17:42:33.227|56=XCD13|45=268|58=Required tag missing|371=117|372=i|373=1|10=010|8=FIX.4.4|9=105|35=3|34=271|49=Q027|52=20190704-17:42:33.283|56=XCD13|45=269|58=Required tag missing|371=117|372=i|373=1|10=014|8=FIX.4.4|9=60|35=b|34=272|49=Q027|52=20190704-17:42:33.682|56=XCD13|117=0|10=173|8=FIX.4.4|9=105|35=3|34=273|49=Q027|52=20190704-17:42:33.684|56=XCD13|45=271|58=Required tag missing|371=117|372=i|373=1|10=014|8=FIX.4.4|9=105|35=3|34=274|49=Q027|52=20190704-17:42:33.699|56=XCD13|45=272|58=Required tag missing|371=117|372=i|373=1|10=022|8=FIX.4.4|9=105|35=3|34=275|49=Q027|52=20190704-17:42:33.721|56=XCD13|45=273|58=Required tag missing|371=117|372=i|373=1|10=010|8=FIX.4.4|9=105|35=3|34=276|49=Q027|52=20190704-17:42:33.779|56=XCD13|45=274|58=Required tag missing|371=117|372=i|373=1|10=025|8=FIX.4.4|9=105|35=3|34=277|49=Q027|52=20190704-17:42:33.866|56=XCD13|45=275|58=Required tag missing|371=117|372=i|373=1|10=024|8=FIX.4.4|9=105|35=3|34=278|49=Q027|52=20190704-17:42:34.028|56=XCD13|45=276|58=Required tag missing|371=117|372=i|373=1|10=017|8=FIX.4.4|9=105|35=3|34=279|49=Q027|52=20190704-17:42:34.314|56=XCD13|45=277|58=Required tag missing|371=117|372=i|373=1|10=017|8=FIX.4.4|9=105|35=3|34=280|49=Q027|52=20190704-17:42:34.385|56=XCD13|45=278|58=Required tag missing|371=117|372=i|373=1|10=018|8=FIX.4.4|9=105|35=3|34=281|49=Q027|52=20190704-17:42:34.463|56=XCD13|45=279|58=Required tag missing|371=117|372=i|373=1|10=017|8=FIX.4.4|9=105|35=3|34=282|49=Q027|52=20190704-17:42:34.483|56=XCD13|45=280|58=Required tag missing|371=117|372=i|373=1|10=012|8=FIX.4.4|9=105|35=3|34=283|49=Q027|52=20190704-17:42:34.536|56=XCD13|45=281|58=Required tag missing|371=117|372=i|373=1|10=013|8=FIX.4.4|9=105|35=3|34=284|49=Q027|52=20190704-17:42:34.581|56=XCD13|45=282|58=Required tag missing|371=117|372=i|373=1|10=015|8=FIX.4.4|9=105|35=3|34=285|49=Q027|52=20190704-17:42:34.608|56=XCD13|45=283|58=Required tag missing|371=117|372=i|373=1|10=017|8=FIX.4.4|9=60|35=b|34=286|49=Q027|52=20190704-17:42:34.683|56=XCD13|117=1|10=181|8=FIX.4.4|9=105|35=3|34=287|49=Q027|52=20190704-17:42:34.743|56=XCD13|45=285|58=Required tag missing|371=117|372=i|373=1|10=021|8=FIX.4.4|9=105|35=3|34=288|49=Q027|52=20190704-17:42:35.675|56=XCD13|45=286|58=Required tag missing|371=117|372=i|373=1|10=028|8=FIX.4.4|9=105|35=3|34=289|49=Q027|52=20190704-17:42:35.678|56=XCD13|45=287|58=Required tag missing|371=117|372=i|373=1|10=033|8=FIX.4.4|9=60|35=b|34=290|49=Q027|52=20190704-17:42:35.706|56=XCD13|117=2|10=174|8=FIX.4.4|9=105|35=3|34=291|49=Q027|52=20190704-17:42:35.737|56=XCD13|45=289|58=Required tag missing|371=117|372=i|373=1|10=024|8=FIX.4.4|9=105|35=3|34=292|49=Q027|52=20190704-17:42:35.748|56=XCD13|45=290|58=Required tag missing|371=117|372=i|373=1|10=019|8=FIX.4.4|9=105|35=3|34=293|49=Q027|52=20190704-17:42:35.748|56=XCD13|45=291|58=Required tag missing|371=117|372=i|373=1|10=021|8=FIX.4.4|9=105|35=3|34=294|49=Q027|52=20190704-17:42:35.770|56=XCD13|45=292|58=Required tag missing|371=117|372=i|373=1|10=018|8=FIX.4.4|9=105|35=3|34=295|49=Q027|52=20190704-17:42:35.777|56=XCD13|45=293|58=Required tag missing|371=117|372=i|373=1|10=027|8=FIX.4.4|9=105|35=3|34=296|49=Q027|52=20190704-17:42:35.806|56=XCD13|45=294|58=Required tag missing|371=117|372=i|373=1|10=022|8=FIX.4.4|9=105|35=3|34=297|49=Q027|52=20190704-17:42:36.137|56=XCD13|45=295|58=Required tag missing|371=117|372=i|373=1|10=022|8=FIX.4.4|9=105|35=3|34=298|49=Q027|52=20190704-17:42:36.285|56=XCD13|45=296|58=Required tag missing|371=117|372=i|373=1|10=028|8=FIX.4.4|9=105|35=3|34=299|49=Q027|52=20190704-17:42:36.335|56=XCD13|45=297|58=Required tag missing|371=117|372=i|373=1|10=026|8=FIX.4.4|9=60|35=b|34=300|49=Q027|52=20190704-17:42:38.278|56=XCD13|117=3|10=174|8=FIX.4.4|9=105|35=3|34=301|49=Q027|52=20190704-17:42:38.288|56=XCD13|45=299|58=Required tag missing|371=117|372=i|373=1|10=021|8=FIX.4.4|9=105|35=3|34=302|49=Q027|52=20190704-17:42:38.290|56=XCD13|45=300|58=Required tag missing|371=117|372=i|373=1|10=254|8=FIX.4.4|9=105|35=3|34=303|49=Q027|52=20190704-17:42:38.395|56=XCD13|45=301|58=Required tag missing|371=117|372=i|373=1|10=006|8=FIX.4.4|9=105|35=3|34=304|49=Q027|52=20190704-17:42:38.411|56=XCD13|45=302|58=Required tag missing|371=117|372=i|373=1|10=253|8=FIX.4.4|9=105|35=3|34=305|49=Q027|52=20190704-17:42:38.486|56=XCD13|45=303|58=Required tag missing|371=117|372=i|373=1|10=011|8=FIX.4.4|9=105|35=3|34=306|49=Q027|52=20190704-17:42:38.817|56=XCD13|45=304|58=Required tag missing|371=117|372=i|373=1|10=011|8=FIX.4.4|9=105|35=3|34=307|49=Q027|52=20190704-17:42:38.840|56=XCD13|45=305|58=Required tag missing|371=117|372=i|373=1|10=009|8=FIX.4.4|9=105|35=3|34=308|49=Q027|52=20190704-17:42:38.898|56=XCD13|45=306|58=Required tag missing|371=117|372=i|373=1|10=024|8=FIX.4.4|9=105|35=3|34=309|49=Q027|52=20190704-17:42:38.982|56=XCD13|45=307|58=Required tag missing|371=117|372=i|373=1|10=020|8=FIX.4.4|9=105|35=3|34=310|49=Q027|52=20190704-17:42:38.993|56=XCD13|45=308|58=Required tag missing|371=117|372=i|373=1|10=015|8=FIX.4.4|9=105|35=3|34=311|49=Q027|52=20190704-17:42:39.000|56=XCD13|45=309|58=Required tag missing|371=117|372=i|373=1|10=253|8=FIX.4.4|9=105|35=3|34=312|49=Q027|52=20190704-17:42:39.002|56=XCD13|45=310|58=Required tag missing|371=117|372=i|373=1|10=248|8=FIX.4.4|9=105|35=3|34=313|49=Q027|52=20190704-17:42:39.019|56=XCD13|45=311|58=Required tag missing|371=117|372=i|373=1|10=002|8=FIX.4.4|9=105|35=3|34=314|49=Q027|52=20190704-17:42:39.119|56=XCD13|45=312|58=Required tag missing|371=117|372=i|373=1|10=005|8=FIX.4.4|9=105|35=3|34=315|49=Q027|52=20190704-17:42:39.162|56=XCD13|45=313|58=Required tag missing|371=117|372=i|373=1|10=005|8=FIX.4.4|9=105|35=3|34=316|49=Q027|52=20190704-17:42:39.181|56=XCD13|45=314|58=Required tag missing|371=117|372=i|373=1|10=008|8=FIX.4.4|9=105|35=3|34=317|49=Q027|52=20190704-17:42:39.197|56=XCD13|45=315|58=Required tag missing|371=117|372=i|373=1|10=017|8=FIX.4.4|9=60|35=b|34=318|49=Q027|52=20190704-17:42:39.300|56=XCD13|117=4|10=171|8=FIX.4.4|9=60|35=b|34=319|49=Q027|52=20190704-17:42:40.370|56=XCD13|117=5|10=172|8=FIX.4.4|9=105|35=3|34=320|49=Q027|52=20190704-17:42:40.971|56=XCD13|45=318|58=Required tag missing|371=117|372=i|373=1|10=006|8=FIX.4.4|9=105|35=3|34=321|49=Q027|52=20190704-17:42:40.988|56=XCD13|45=319|58=Required tag missing|371=117|372=i|373=1|10=016|8=FIX.4.4|9=105|35=3|34=322|49=Q027|52=20190704-17:42:41.028|56=XCD13|45=320|58=Required tag missing|371=117|372=i|373=1|10=251|8=FIX.4.4|9=60|35=b|34=323|49=Q027|52=20190704-17:42:41.433|56=XCD13|117=6|10=169|8=FIX.4.4|9=105|35=3|34=324|49=Q027|52=20190704-17:42:42.127|56=XCD13|45=322|58=Required tag missing|371=117|372=i|373=1|10=000|8=FIX.4.4|9=60|35=b|34=325|49=Q027|52=20190704-17:42:44.000|56=XCD13|117=7|10=165|8=FIX.4.4|9=105|35=3|34=326|49=Q027|52=20190704-17:42:44.161|56=XCD13|45=324|58=Required tag missing|371=117|372=i|373=1|10=004|8=FIX.4.4|9=105|35=3|34=327|49=Q027|52=20190704-17:42:44.821|56=XCD13|45=325|58=Required tag missing|371=117|372=i|373=1|10=009|8=FIX.4.4|9=60|35=b|34=328|49=Q027|52=20190704-17:42:45.260|56=XCD13|117=8|10=178|8=FIX.4.4|9=105|35=3|34=329|49=Q027|52=20190704-17:42:45.270|56=XCD13|45=327|58=Required tag missing|371=117|372=i|373=1|10=012|8=FIX.4.4|9=60|35=b|34=330|49=Q027|52=20190704-17:42:46.523|56=XCD13|117=9|10=175|8=FIX.4.4|9=105|35=3|34=331|49=Q027|52=20190704-17:42:46.942|56=XCD13|45=329|58=Required tag missing|371=117|372=i|373=1|10=014|8=FIX.4.4|9=105|35=3|34=332|49=Q027|52=20190704-17:42:47.106|56=XCD13|45=330|58=Required tag missing|371=117|372=i|373=1|10=000|8=FIX.4.4|9=105|35=3|34=333|49=Q027|52=20190704-17:42:47.205|56=XCD13|45=331|58=Required tag missing|371=117|372=i|373=1|10=002|8=FIX.4.4|9=105|35=3|34=334|49=Q027|52=20190704-17:42:47.207|56=XCD13|45=332|58=Required tag missing|371=117|372=i|373=1|10=006|8=FIX.4.4|9=105|35=3|34=335|49=Q027|52=20190704-17:42:47.207|56=XCD13|45=333|58=Required tag missing|371=117|372=i|373=1|10=008|8=FIX.4.4|9=105|35=3|34=336|49=Q027|52=20190704-17:42:47.219|56=XCD13|45=334|58=Required tag missing|371=117|372=i|373=1|10=013|8=FIX.4.4|9=105|35=3|34=337|49=Q027|52=20190704-17:42:47.220|56=XCD13|45=335|58=Required tag missing|371=117|372=i|373=1|10=007|8=FIX.4.4|9=61|35=b|34=338|49=Q027|52=20190704-17:42:47.903|56=XCD13|117=10|10=227|8=FIX.4.4|9=105|35=3|34=339|49=Q027|52=20190704-17:42:47.919|56=XCD13|45=337|58=Required tag missing|371=117|372=i|373=1|10=026|8=FIX.4.4|9=61|35=b|34=340|49=Q027|52=20190704-17:42:49.076|56=XCD13|117=11|10=224|8=FIX.4.4|9=105|35=3|34=341|49=Q027|52=20190704-17:42:49.120|56=XCD13|45=339|58=Required tag missing|371=117|372=i|373=1|10=007|8=FIX.4.4|9=105|35=3|34=342|49=Q027|52=20190704-17:42:49.161|56=XCD13|45=340|58=Required tag missing|371=117|372=i|373=1|10=005|8=FIX.4.4|9=105|35=3|34=343|49=Q027|52=20190704-17:42:49.299|56=XCD13|45=341|58=Required tag missing|371=117|372=i|373=1|10=019|8=FIX.4.4|9=105|35=3|34=344|49=Q027|52=20190704-17:42:49.326|56=XCD13|45=342|58=Required tag missing|371=117|372=i|373=1|10=012|8=FIX.4.4|9=105|35=3|34=345|49=Q027|52=20190704-17:42:49.856|56=XCD13|45=343|58=Required tag missing|371=117|372=i|373=1|10=022|8=FIX.4.4|9=61|35=b|34=346|49=Q027|52=20190704-17:42:51.641|56=XCD13|117=12|10=222|8=FIX.4.4|9=105|35=3|34=347|49=Q027|52=20190704-17:42:51.699|56=XCD13|45=345|58=Required tag missing|371=117|372=i|373=1|10=024|8=FIX.4.4|9=105|35=3|34=348|49=Q027|52=20190704-17:42:51.754|56=XCD13|45=346|58=Required tag missing|371=117|372=i|373=1|10=018|8=FIX.4.4|9=105|35=3|34=349|49=Q027|52=20190704-17:42:51.794|56=XCD13|45=347|58=Required tag missing|371=117|372=i|373=1|10=024|8=FIX.4.4|9=105|35=3|34=350|49=Q027|52=20190704-17:42:51.870|56=XCD13|45=348|58=Required tag missing|371=117|372=i|373=1|10=012|8=FIX.4.4|9=61|35=b|34=351|49=Q027|52=20190704-17:42:52.762|56=XCD13|117=13|10=224|8=FIX.4.4|9=105|35=3|34=352|49=Q027|52=20190704-17:42:52.763|56=XCD13|45=350|58=Required tag missing|371=117|372=i|373=1|10=009|8=FIX.4.4|9=105|35=3|34=353|49=Q027|52=20190704-17:42:52.767|56=XCD13|45=351|58=Required tag missing|371=117|372=i|373=1|10=015|8=FIX.4.4|9=105|35=3|34=354|49=Q027|52=20190704-17:42:52.784|56=XCD13|45=352|58=Required tag missing|371=117|372=i|373=1|10=016|8=FIX.4.4|9=105|35=3|34=355|49=Q027|52=20190704-17:42:52.802|56=XCD13|45=353|58=Required tag missing|371=117|372=i|373=1|10=009|8=FIX.4.4|9=105|35=3|34=356|49=Q027|52=20190704-17:42:52.866|56=XCD13|45=354|58=Required tag missing|371=117|372=i|373=1|10=021|8=FIX.4.4|9=105|35=3|34=357|49=Q027|52=20190704-17:42:53.118|56=XCD13|45=355|58=Required tag missing|371=117|372=i|373=1|10=014|8=FIX.4.4|9=61|35=b|34=358|49=Q027|52=20190704-17:42:55.382|56=XCD13|117=14|10=233|8=FIX.4.4|9=105|35=3|34=359|49=Q027|52=20190704-17:42:56.081|56=XCD13|45=357|58=Required tag missing|371=117|372=i|373=1|10=020|8=FIX.4.4|9=61|35=b|34=360|49=Q027|52=20190704-17:42:56.764|56=XCD13|117=15|10=232|8=FIX.4.4|9=105|35=3|34=361|49=Q027|52=20190704-17:42:57.686|56=XCD13|45=359|58=Required tag missing|371=117|372=i|373=1|10=027|8=FIX.4.4|9=60|35=b|34=362|49=Q027|52=20190704-17:43:00.558|56=XCD13|117=0|10=170|8=FIX.4.4|9=60|35=b|34=363|49=Q027|52=20190704-17:43:01.836|56=XCD13|117=1|10=172|8=FIX.4.4|9=60|35=b|34=364|49=Q027|52=20190704-17:43:03.078|56=XCD13|117=2|10=174|8=FIX.4.4|9=105|35=3|34=365|49=Q027|52=20190704-17:43:04.069|56=XCD13|45=363|58=Required tag missing|371=117|372=i|373=1|10=014|8=FIX.4.4|9=60|35=b|34=366|49=Q027|52=20190704-17:43:04.497|56=XCD13|117=3|10=183|8=FIX.4.4|9=105|35=3|34=367|49=Q027|52=20190704-17:43:04.503|56=XCD13|45=365|58=Required tag missing|371=117|372=i|373=1|10=011|8=FIX.4.4|9=105|35=3|34=368|49=Q027|52=20190704-17:43:04.612|56=XCD13|45=366|58=Required tag missing|371=117|372=i|373=1|10=014|8=FIX.4.4|9=105|35=3|34=369|49=Q027|52=20190704-17:43:05.407|56=XCD13|45=367|58=Required tag missing|371=117|372=i|373=1|10=019|8=FIX.4.4|9=60|35=b|34=370|49=Q027|52=20190704-17:43:08.245|56=XCD13|117=4|10=174|8=FIX.4.4|9=60|35=b|34=371|49=Q027|52=20190704-17:43:10.244|56=XCD13|117=5|10=168|8=FIX.4.4|9=105|35=3|34=372|49=Q027|52=20190704-17:43:10.451|56=XCD13|45=370|58=Required tag missing|371=117|372=i|373=1|10=002|8=FIX.4.4|9=60|35=b|34=373|49=Q027|52=20190704-17:43:14.302|56=XCD13|117=6|10=170|8=FIX.4.4|9=60|35=b|34=374|49=Q027|52=20190704-17:43:23.111|56=XCD13|117=7|10=170|8=FIX.4.4|9=105|35=3|34=375|49=Q027|52=20190704-17:43:23.117|56=XCD13|45=373|58=Required tag missing|371=117|372=i|373=1|10=011|8=FIX.4.4|9=60|35=b|34=376|49=Q027|52=20190704-17:43:26.478|56=XCD13|117=8|10=192|8=FIX.4.4|9=54|35=0|34=377|49=Q027|52=20190704-17:43:56.490|56=XCD13|10=128|8=FIX.4.4|9=60|35=b|34=378|49=Q027|52=20190704-17:44:01.933|56=XCD13|117=9|10=185|8=FIX.4.4|9=105|35=3|34=379|49=Q027|52=20190704-17:44:01.935|56=XCD13|45=377|58=Required tag missing|371=117|372=i|373=1|10=024|8=FIX.4.4|9=105|35=3|34=380|49=Q027|52=20190704-17:44:02.922|56=XCD13|45=378|58=Required tag missing|371=117|372=i|373=1|10=014|8=FIX.4.4|9=61|35=b|34=381|49=Q027|52=20190704-17:44:05.635|56=XCD13|117=10|10=223|8=FIX.4.4|9=61|35=b|34=382|49=Q027|52=20190704-17:44:10.794|56=XCD13|117=11|10=227|8=FIX.4.4|9=61|35=b|34=383|49=Q027|52=20190704-17:44:17.827|56=XCD13|117=12|10=233|8=FIX.4.4|9=105|35=3|34=384|49=Q027|52=20190704-17:44:18.764|56=XCD13|45=382|58=Required tag missing|371=117|372=i|373=1|10=024|8=FIX.4.4|9=105|35=3|34=385|49=Q027|52=20190704-17:44:18.819|56=XCD13|45=383|58=Required tag missing|371=117|372=i|373=1|10=027|8=FIX.4.4|9=61|35=b|34=386|49=Q027|52=20190704-17:44:18.832|56=XCD13|117=13|10=234|8=FIX.4.4|9=105|35=3|34=387|49=Q027|52=20190704-17:44:19.035|56=XCD13|45=385|58=Required tag missing|371=117|372=i|373=1|10=022|8=FIX.4.4|9=105|35=3|34=388|49=Q027|52=20190704-17:44:19.047|56=XCD13|45=386|58=Required tag missing|371=117|372=i|373=1|10=027|8=FIX.4.4|9=105|35=3|34=389|49=Q027|52=20190704-17:44:19.144|56=XCD13|45=387|58=Required tag missing|371=117|372=i|373=1|10=027|8=FIX.4.4|9=105|35=3|34=390|49=Q027|52=20190704-17:44:19.320|56=XCD13|45=388|58=Required tag missing|371=117|372=i|373=1|10=016|8=FIX.4.4|9=61|35=b|34=391|49=Q027|52=20190704-17:44:31.389|56=XCD13|117=14|10=233|8=FIX.4.4|9=105|35=3|34=392|49=Q027|52=20190704-17:44:32.168|56=XCD13|45=390|58=Required tag missing|371=117|372=i|373=1|10=016|8=FIX.4.4|9=105|35=3|34=393|49=Q027|52=20190704-17:44:32.271|56=XCD13|45=391|58=Required tag missing|371=117|372=i|373=1|10=013|8=FIX.4.4|9=105|35=3|34=394|49=Q027|52=20190704-17:44:32.366|56=XCD13|45=392|58=Required tag missing|371=117|372=i|373=1|10=020|8=FIX.4.4|9=61|35=b|34=395|49=Q027|52=20190704-17:44:35.636|56=XCD13|117=15|10=237|8=FIX.4.4|9=60|35=b|34=396|49=Q027|52=20190704-17:44:37.905|56=XCD13|117=0|10=184|8=FIX.4.4|9=60|35=b|34=397|49=Q027|52=20190704-17:44:40.482|56=XCD13|117=1|10=180|8=FIX.4.4|9=60|35=b|34=398|49=Q027|52=20190704-17:44:45.222|56=XCD13|117=2|10=179|8=FIX.4.4|9=105|35=3|34=399|49=Q027|52=20190704-17:44:45.232|56=XCD13|45=397|58=Required tag missing|371=117|372=i|373=1|10=026|8=FIX.4.4|9=60|35=b|34=400|49=Q027|52=20190704-17:44:54.538|56=XCD13|117=3|10=174|8=FIX.4.4|9=105|35=3|34=401|49=Q027|52=20190704-17:44:54.641|56=XCD13|45=399|58=Required tag missing|371=117|372=i|373=1|10=016|8=FIX.4.4|9=105|35=3|34=402|49=Q027|52=20190704-17:44:55.392|56=XCD13|45=400|58=Required tag missing|371=117|372=i|373=1|10=004|8=FIX.4.4|9=105|35=3|34=403|49=Q027|52=20190704-17:44:55.504|56=XCD13|45=401|58=Required tag missing|371=117|372=i|373=1|10=001|8=FIX.4.4|9=60|35=b|34=404|49=Q027|52=20190704-17:44:57.994|56=XCD13|117=4|10=188|8=FIX.4.4|9=112|35=3|34=405|49=Q027|52=20190704-17:44:57.995|56=XCD13|45=403|58=Tag appears more than once|371=106|372=W|373=13|10=006|8=FIX.4.4|9=60|35=b|34=406|49=Q027|52=20190704-17:45:00.645|56=XCD13|117=5|10=173|8=FIX.4.4|9=105|35=3|34=407|49=Q027|52=20190704-17:45:01.165|56=XCD13|45=405|58=Required tag missing|371=117|372=i|373=1|10=004|8=FIX.4.4|9=60|35=b|34=408|49=Q027|52=20190704-17:45:04.534|56=XCD13|117=6|10=177|8=FIX.4.4|9=112|35=3|34=409|49=Q027|52=20190704-17:45:04.535|56=XCD13|45=407|58=Tag appears more than once|371=106|372=W|373=13|10=253|8=FIX.4.4|9=105|35=3|34=410|49=Q027|52=20190704-17:45:04.877|56=XCD13|45=408|58=Required tag missing|371=117|372=i|373=1|10=014|8=FIX.4.4|9=105|35=3|34=411|49=Q027|52=20190704-17:45:05.237|56=XCD13|45=409|58=Required tag missing|371=117|372=i|373=1|10=007|8=FIX.4.4|9=60|35=b|34=412|49=Q027|52=20190704-17:45:05.715|56=XCD13|117=7|10=175|8=FIX.4.4|9=60|35=b|34=413|49=Q027|52=20190704-17:45:07.229|56=XCD13|117=8|10=179|8=FIX.4.4|9=60|35=b|34=414|49=Q027|52=20190704-17:45:08.462|56=XCD13|117=9|10=181|8=FIX.4.4|9=105|35=3|34=415|49=Q027|52=20190704-17:45:08.467|56=XCD13|45=413|58=Required tag missing|371=117|372=i|373=1|10=014|8=FIX.4.4|9=61|35=b|34=416|49=Q027|52=20190704-17:45:09.529|56=XCD13|117=10|10=229|8=FIX.4.4|9=105|35=3|34=417|49=Q027|52=20190704-17:45:09.870|56=XCD13|45=415|58=Required tag missing|371=117|372=i|373=1|10=017|8=FIX.4.4|9=105|35=3|34=418|49=Q027|52=20190704-17:45:10.006|56=XCD13|45=416|58=Required tag missing|371=117|372=i|373=1|10=002|8=FIX.4.4|9=105|35=3|34=419|49=Q027|52=20190704-17:45:10.059|56=XCD13|45=417|58=Required tag missing|371=117|372=i|373=1|10=012|8=FIX.4.4|9=61|35=b|34=420|49=Q027|52=20190704-17:45:12.018|56=XCD13|117=11|10=212|8=FIX.4.4|9=105|35=3|34=421|49=Q027|52=20190704-17:45:12.020|56=XCD13|45=419|58=Required tag missing|371=117|372=i|373=1|10=253|8=FIX.4.4|9=105|35=3|34=422|49=Q027|52=20190704-17:45:12.370|56=XCD13|45=420|58=Required tag missing|371=117|372=i|373=1|10=254|8=FIX.4.4|9=105|35=3|34=423|49=Q027|52=20190704-17:45:12.519|56=XCD13|45=421|58=Required tag missing|371=117|372=i|373=1|10=005|8=FIX.4.4|9=105|35=3|34=424|49=Q027|52=20190704-17:45:12.734|56=XCD13|45=422|58=Required tag missing|371=117|372=i|373=1|10=006|8=FIX.4.4|9=105|35=3|34=425|49=Q027|52=20190704-17:45:12.791|56=XCD13|45=423|58=Required tag missing|371=117|372=i|373=1|10=011|8=FIX.4.4|9=61|35=b|34=426|49=Q027|52=20190704-17:45:14.527|56=XCD13|117=12|10=226|8=FIX.4.4|9=105|35=3|34=427|49=Q027|52=20190704-17:45:15.034|56=XCD13|45=425|58=Required tag missing|371=117|372=i|373=1|10=008|8=FIX.4.4|9=105|35=3|34=428|49=Q027|52=20190704-17:45:15.050|56=XCD13|45=426|58=Required tag missing|371=117|372=i|373=1|10=008|8=FIX.4.4|9=105|35=3|34=429|49=Q027|52=20190704-17:45:15.091|56=XCD13|45=427|58=Required tag missing|371=117|372=i|373=1|10=015|8=FIX.4.4|9=105|35=3|34=430|49=Q027|52=20190704-17:45:15.429|56=XCD13|45=428|58=Required tag missing|371=117|372=i|373=1|10=013|8=FIX.4.4|9=105|35=3|34=431|49=Q027|52=20190704-17:45:15.495|56=XCD13|45=429|58=Required tag missing|371=117|372=i|373=1|10=018|8=FIX.4.4|9=105|35=3|34=432|49=Q027|52=20190704-17:45:15.540|56=XCD13|45=430|58=Required tag missing|371=117|372=i|373=1|10=002|8=FIX.4.4|9=61|35=b|34=433|49=Q027|52=20190704-17:45:15.572|56=XCD13|117=13|10=226|8=FIX.4.4|9=105|35=3|34=434|49=Q027|52=20190704-17:45:15.572|56=XCD13|45=432|58=Required tag missing|371=117|372=i|373=1|10=011|8=FIX.4.4|9=105|35=3|34=435|49=Q027|52=20190704-17:45:15.576|56=XCD13|45=433|58=Required tag missing|371=117|372=i|373=1|10=017|8=FIX.4.4|9=61|35=b|34=436|49=Q027|52=20190704-17:45:17.506|56=XCD13|117=14|10=229|8=FIX.4.4|9=105|35=3|34=437|49=Q027|52=20190704-17:45:18.107|56=XCD13|45=435|58=Required tag missing|371=117|372=i|373=1|10=014|8=FIX.4.4|9=61|35=b|34=438|49=Q027|52=20190704-17:45:21.818|56=XCD13|117=15|10=233|8=FIX.4.4|9=105|35=3|34=439|49=Q027|52=20190704-17:45:21.872|56=XCD13|45=437|58=Required tag missing|371=117|372=i|373=1|10=021|8=FIX.4.4|9=105|35=3|34=440|49=Q027|52=20190704-17:45:21.928|56=XCD13|45=438|58=Required tag missing|371=117|372=i|373=1|10=016|8=FIX.4.4|9=105|35=3|34=441|49=Q027|52=20190704-17:45:21.973|56=XCD13|45=439|58=Required tag missing|371=117|372=i|373=1|10=018|8=FIX.4.4|9=105|35=3|34=442|49=Q027|52=20190704-17:45:22.811|56=XCD13|45=440|58=Required tag missing|371=117|372=i|373=1|10=003|8=FIX.4.4|9=60|35=b|34=443|49=Q027|52=20190704-17:45:22.831|56=XCD13|117=0|10=170|8=FIX.4.4|9=105|35=3|34=444|49=Q027|52=20190704-17:45:22.852|56=XCD13|45=442|58=Required tag missing|371=117|372=i|373=1|10=012|8=FIX.4.4|9=105|35=3|34=445|49=Q027|52=20190704-17:45:22.890|56=XCD13|45=443|58=Required tag missing|371=117|372=i|373=1|10=016|8=FIX.4.4|9=105|35=3|34=446|49=Q027|52=20190704-17:45:22.928|56=XCD13|45=444|58=Required tag missing|371=117|372=i|373=1|10=020|8=FIX.4.4|9=105|35=3|34=447|49=Q027|52=20190704-17:45:23.115|56=XCD13|45=445|58=Required tag missing|371=117|372=i|373=1|10=011|8=FIX.4.4|9=60|35=b|34=448|49=Q027|52=20190704-17:45:24.441|56=XCD13|117=1|10=175|8=FIX.4.4|9=60|35=b|34=449|49=Q027|52=20190704-17:45:26.003|56=XCD13|117=2|10=173|8=FIX.4.4|9=60|35=b|34=450|49=Q027|52=20190704-17:45:27.333|56=XCD13|117=3|10=173|8=FIX.4.4|9=105|35=3|34=451|49=Q027|52=20190704-17:45:27.335|56=XCD13|45=449|58=Required tag missing|371=117|372=i|373=1|10=018|8=FIX.4.4|9=105|35=3|34=452|49=Q027|52=20190704-17:45:28.232|56=XCD13|45=450|58=Required tag missing|371=117|372=i|373=1|10=008|8=FIX.4.4|9=60|35=b|34=453|49=Q027|52=20190704-17:45:28.734|56=XCD13|117=4|10=183|8=FIX.4.4|9=105|35=3|34=454|49=Q027|52=20190704-17:45:29.121|56=XCD13|45=452|58=Required tag missing|371=117|372=i|373=1|10=010|8=FIX.4.4|9=60|35=b|34=455|49=Q027|52=20190704-17:45:39.113|56=XCD13|117=5|10=179|8=FIX.4.4|9=60|35=b|34=456|49=Q027|52=20190704-17:45:45.882|56=XCD13|117=6|10=191|8=FIX.4.4|9=105|35=3|34=457|49=Q027|52=20190704-17:45:45.947|56=XCD13|45=455|58=Required tag missing|371=117|372=i|373=1|10=030|8=FIX.4.4|9=105|35=3|34=458|49=Q027|52=20190704-17:45:46.214|56=XCD13|45=456|58=Required tag missing|371=117|372=i|373=1|10=020|8=FIX.4.4|9=105|35=3|34=459|49=Q027|52=20190704-17:45:46.233|56=XCD13|45=457|58=Required tag missing|371=117|372=i|373=1|10=023|8=FIX.4.4|9=105|35=3|34=460|49=Q027|52=20190704-17:45:46.279|56=XCD13|45=458|58=Required tag missing|371=117|372=i|373=1|10=026|8=FIX.4.4|9=105|35=3|34=461|49=Q027|52=20190704-17:45:46.710|56=XCD13|45=459|58=Required tag missing|371=117|372=i|373=1|10=018|8=FIX.4.4|9=60|35=b|34=462|49=Q027|52=20190704-17:45:47.230|56=XCD13|117=7|10=178|8=FIX.4.4|9=105|35=3|34=463|49=Q027|52=20190704-17:45:47.571|56=XCD13|45=461|58=Required tag missing|371=117|372=i|373=1|10=019|8=FIX.4.4|9=105|35=3|34=464|49=Q027|52=20190704-17:45:47.730|56=XCD13|45=462|58=Required tag missing|371=117|372=i|373=1|10=018|8=FIX.4.4|9=60|35=b|34=465|49=Q027|52=20190704-17:45:54.690|56=XCD13|117=8|10=190|8=FIX.4.4|9=105|35=3|34=466|49=Q027|52=20190704-17:45:54.876|56=XCD13|45=464|58=Required tag missing|371=117|372=i|373=1|10=031|8=FIX.4.4|9=60|35=b|34=467|49=Q027|52=20190704-17:46:00.736|56=XCD13|117=9|10=186|8=FIX.4.4|9=61|35=b|34=468|49=Q027|52=20190704-17:46:02.069|56=XCD13|117=10|10=229|8=FIX.4.4|9=61|35=b|34=469|49=Q027|52=20190704-17:46:15.242|56=XCD13|117=11|10=228|8=FIX.4.4|9=105|35=3|34=470|49=Q027|52=20190704-17:46:16.234|56=XCD13|45=468|58=Required tag missing|371=117|372=i|373=1|10=017|8=FIX.4.4|9=61|35=b|34=471|49=Q027|52=20190704-17:46:22.866|56=XCD13|117=12|10=232|8=FIX.4.4|9=105|35=3|34=472|49=Q027|52=20190704-17:46:23.024|56=XCD13|45=470|58=Required tag missing|371=117|372=i|373=1|10=007|8=FIX.4.4|9=105|35=3|34=473|49=Q027|52=20190704-17:46:23.235|56=XCD13|45=471|58=Required tag missing|371=117|372=i|373=1|10=013|8=FIX.4.4|9=61|35=b|34=474|49=Q027|52=20190704-17:46:27.158|56=XCD13|117=13|10=235|8=FIX.4.4|9=105|35=3|34=475|49=Q027|52=20190704-17:46:27.255|56=XCD13|45=473|58=Required tag missing|371=117|372=i|373=1|10=023|8=FIX.4.4|9=105|35=3|34=476|49=Q027|52=20190704-17:46:27.265|56=XCD13|45=474|58=Required tag missing|371=117|372=i|373=1|10=026|8=FIX.4.4|9=105|35=3|34=477|49=Q027|52=20190704-17:46:27.266|56=XCD13|45=475|58=Required tag missing|371=117|372=i|373=1|10=029|8=FIX.4.4|9=105|35=3|34=478|49=Q027|52=20190704-17:46:27.312|56=XCD13|45=476|58=Required tag missing|371=117|372=i|373=1|10=023|8=FIX.4.4|9=105|35=3|34=479|49=Q027|52=20190704-17:46:27.417|56=XCD13|45=477|58=Required tag missing|371=117|372=i|373=1|10=031|8=FIX.4.4|9=105|35=3|34=480|49=Q027|52=20190704-17:46:27.895|56=XCD13|45=478|58=Required tag missing|371=117|372=i|373=1|10=034|8=FIX.4.4|9=105|35=3|34=481|49=Q027|52=20190704-17:46:27.900|56=XCD13|45=479|58=Required tag missing|371=117|372=i|373=1|10=023|8=FIX.4.4|9=105|35=3|34=482|49=Q027|52=20190704-17:46:27.900|56=XCD13|45=480|58=Required tag missing|371=117|372=i|373=1|10=016|8=FIX.4.4|9=105|35=3|34=483|49=Q027|52=20190704-17:46:27.946|56=XCD13|45=481|58=Required tag missing|371=117|372=i|373=1|10=028|8=FIX.4.4|9=105|35=3|34=484|49=Q027|52=20190704-17:46:28.014|56=XCD13|45=482|58=Required tag missing|371=117|372=i|373=1|10=017|8=FIX.4.4|9=61|35=b|34=485|49=Q027|52=20190704-17:46:28.224|56=XCD13|117=14|10=233|8=FIX.4.4|9=105|35=3|34=486|49=Q027|52=20190704-17:46:28.465|56=XCD13|45=484|58=Required tag missing|371=117|372=i|373=1|10=031|8=FIX.4.4|9=105|35=3|34=487|49=Q027|52=20190704-17:46:28.734|56=XCD13|45=485|58=Required tag missing|371=117|372=i|373=1|10=032|8=FIX.4.4|9=105|35=3|34=488|49=Q027|52=20190704-17:46:28.966|56=XCD13|45=486|58=Required tag missing|371=117|372=i|373=1|10=041|8=FIX.4.4|9=105|35=3|34=489|49=Q027|52=20190704-17:46:29.226|56=XCD13|45=487|58=Required tag missing|371=117|372=i|373=1|10=033|8=FIX.4.4|9=61|35=b|34=490|49=Q027|52=20190704-17:46:29.466|56=XCD13|117=15|10=239|8=FIX.4.4|9=105|35=3|34=491|49=Q027|52=20190704-17:46:29.721|56=XCD13|45=489|58=Required tag missing|371=117|372=i|373=1|10=028|8=FIX.4.4|9=105|35=3|34=492|49=Q027|52=20190704-17:46:29.974|56=XCD13|45=490|58=Required tag missing|371=117|372=i|373=1|10=031|8=FIX.4.4|9=105|35=3|34=493|49=Q027|52=20190704-17:46:30.111|56=XCD13|45=491|58=Required tag missing|371=117|372=i|373=1|10=008|8=FIX.4.4|9=105|35=3|34=494|49=Q027|52=20190704-17:46:30.160|56=XCD13|45=492|58=Required tag missing|371=117|372=i|373=1|10=014|8=FIX.4.4|9=105|35=3|34=495|49=Q027|52=20190704-17:46:30.224|56=XCD13|45=493|58=Required tag missing|371=117|372=i|373=1|10=017|8=FIX.4.4|9=60|35=b|34=496|49=Q027|52=20190704-17:46:30.464|56=XCD13|117=0|10=180|8=FIX.4.4|9=105|35=3|34=497|49=Q027|52=20190704-17:46:30.724|56=XCD13|45=495|58=Required tag missing|371=117|372=i|373=1|10=026|8=FIX.4.4|9=105|35=3|34=498|49=Q027|52=20190704-17:46:30.965|56=XCD13|45=496|58=Required tag missing|371=117|372=i|373=1|10=035|8=FIX.4.4|9=105|35=3|34=499|49=Q027|52=20190704-17:46:31.115|56=XCD13|45=497|58=Required tag missing|371=117|372=i|373=1|10=025|8=FIX.4.4|9=60|35=b|34=500|49=Q027|52=20190704-17:46:31.466|56=XCD13|117=1|10=170|8=FIX.4.4|9=105|35=3|34=501|49=Q027|52=20190704-17:46:31.614|56=XCD13|45=499|58=Required tag missing|371=117|372=i|373=1|10=015|8=FIX.4.4|9=105|35=3|34=502|49=Q027|52=20190704-17:46:31.964|56=XCD13|45=500|58=Required tag missing|371=117|372=i|373=1|10=007|8=FIX.4.4|9=105|35=3|34=503|49=Q027|52=20190704-17:46:32.052|56=XCD13|45=501|58=Required tag missing|371=117|372=i|373=1|10=254|8=FIX.4.4|9=105|35=3|34=504|49=Q027|52=20190704-17:46:32.124|56=XCD13|45=502|58=Required tag missing|371=117|372=i|373=1|10=000|8=FIX.4.4|9=105|35=3|34=505|49=Q027|52=20190704-17:46:32.474|56=XCD13|45=503|58=Required tag missing|371=117|372=i|373=1|10=010|8=FIX.4.4|9=60|35=b|34=506|49=Q027|52=20190704-17:46:32.616|56=XCD13|117=2|10=175|8=FIX.4.4|9=105|35=3|34=507|49=Q027|52=20190704-17:46:32.965|56=XCD13|45=505|58=Required tag missing|371=117|372=i|373=1|10=019|8=FIX.4.4|9=105|35=3|34=508|49=Q027|52=20190704-17:46:33.118|56=XCD13|45=506|58=Required tag missing|371=117|372=i|373=1|10=012|8=FIX.4.4|9=105|35=3|34=509|49=Q027|52=20190704-17:46:33.232|56=XCD13|45=507|58=Required tag missing|371=117|372=i|373=1|10=011|8=FIX.4.4|9=105|35=3|34=510|49=Q027|52=20190704-17:46:33.464|56=XCD13|45=508|58=Required tag missing|371=117|372=i|373=1|10=011|8=FIX.4.4|9=60|35=b|34=511|49=Q027|52=20190704-17:46:33.630|56=XCD13|117=3|10=169|8=FIX.4.4|9=105|35=3|34=512|49=Q027|52=20190704-17:46:33.854|56=XCD13|45=510|58=Required tag missing|371=117|372=i|373=1|10=009|8=FIX.4.4|9=105|35=3|34=513|49=Q027|52=20190704-17:46:34.126|56=XCD13|45=511|58=Required tag missing|371=117|372=i|373=1|10=004|8=FIX.4.4|9=105|35=3|34=514|49=Q027|52=20190704-17:46:34.556|56=XCD13|45=512|58=Required tag missing|371=117|372=i|373=1|10=013|8=FIX.4.4|9=60|35=b|34=515|49=Q027|52=20190704-17:46:35.224|56=XCD13|117=4|10=175|8=FIX.4.4|9=60|35=b|34=516|49=Q027|52=20190704-17:46:37.138|56=XCD13|117=5|10=183|8=FIX.4.4|9=105|35=3|34=517|49=Q027|52=20190704-17:46:37.181|56=XCD13|45=515|58=Required tag missing|371=117|372=i|373=1|10=016|8=FIX.4.4|9=105|35=3|34=518|49=Q027|52=20190704-17:46:37.222|56=XCD13|45=516|58=Required tag missing|371=117|372=i|373=1|10=014|8=FIX.4.4|9=105|35=3|34=519|49=Q027|52=20190704-17:46:37.225|56=XCD13|45=517|58=Required tag missing|371=117|372=i|373=1|10=019|8=FIX.4.4|9=105|35=3|34=520|49=Q027|52=20190704-17:46:37.241|56=XCD13|45=518|58=Required tag missing|371=117|372=i|373=1|10=010|8=FIX.4.4|9=105|35=3|34=521|49=Q027|52=20190704-17:46:37.270|56=XCD13|45=519|58=Required tag missing|371=117|372=i|373=1|10=014|8=FIX.4.4|9=105|35=3|34=522|49=Q027|52=20190704-17:46:37.352|56=XCD13|45=520|58=Required tag missing|371=117|372=i|373=1|10=008|8=FIX.4.4|9=105|35=3|34=523|49=Q027|52=20190704-17:46:37.421|56=XCD13|45=521|58=Required tag missing|371=117|372=i|373=1|10=007|8=FIX.4.4|9=105|35=3|34=524|49=Q027|52=20190704-17:46:37.776|56=XCD13|45=522|58=Required tag missing|371=117|372=i|373=1|10=022|8=FIX.4.4|9=60|35=b|34=525|49=Q027|52=20190704-17:46:38.728|56=XCD13|117=6|10=190|8=FIX.4.4|9=105|35=3|34=526|49=Q027|52=20190704-17:46:38.730|56=XCD13|45=524|58=Required tag missing|371=117|372=i|373=1|10=017|8=FIX.4.4|9=105|35=3|34=527|49=Q027|52=20190704-17:46:38.741|56=XCD13|45=525|58=Required tag missing|371=117|372=i|373=1|10=021|8=FIX.4.4|9=105|35=3|34=528|49=Q027|52=20190704-17:46:38.803|56=XCD13|45=526|58=Required tag missing|371=117|372=i|373=1|10=022|8=FIX.4.4|9=105|35=3|34=529|49=Q027|52=20190704-17:46:38.839|56=XCD13|45=527|58=Required tag missing|371=117|372=i|373=1|10=033|8=FIX.4.4|9=105|35=3|34=530|49=Q027|52=20190704-17:46:38.998|56=XCD13|45=528|58=Required tag missing|371=117|372=i|373=1|10=032|8=FIX.4.4|9=60|35=b|34=531|49=Q027|52=20190704-17:46:39.848|56=XCD13|117=7|10=192|8=FIX.4.4|9=105|35=3|34=532|49=Q027|52=20190704-17:46:40.190|56=XCD13|45=530|58=Required tag missing|371=117|372=i|373=1|10=004|8=FIX.4.4|9=105|35=3|34=533|49=Q027|52=20190704-17:46:40.192|56=XCD13|45=531|58=Required tag missing|371=117|372=i|373=1|10=008|8=FIX.4.4|9=60|35=b|34=534|49=Q027|52=20190704-17:46:42.199|56=XCD13|117=8|10=189|8=FIX.4.4|9=105|35=3|34=535|49=Q027|52=20190704-17:46:42.250|56=XCD13|45=533|58=Required tag missing|371=117|372=i|373=1|10=009|8=FIX.4.4|9=105|35=3|34=536|49=Q027|52=20190704-17:46:42.580|56=XCD13|45=534|58=Required tag missing|371=117|372=i|373=1|10=017|8=FIX.4.4|9=60|35=b|34=537|49=Q027|52=20190704-17:46:44.888|56=XCD13|117=9|10=200|8=FIX.4.4|9=61|35=b|34=538|49=Q027|52=20190704-17:46:46.951|56=XCD13|117=10|10=235|8=FIX.4.4|9=61|35=b|34=539|49=Q027|52=20190704-17:46:47.924|56=XCD13|117=11|10=238|8=FIX.4.4|9=105|35=3|34=540|49=Q027|52=20190704-17:46:48.177|56=XCD13|45=538|58=Required tag missing|371=117|372=i|373=1|10=024|8=FIX.4.4|9=61|35=b|34=541|49=Q027|52=20190704-17:46:49.986|56=XCD13|117=12|10=242|8=FIX.4.4|9=105|35=3|34=542|49=Q027|52=20190704-17:46:50.035|56=XCD13|45=540|58=Required tag missing|371=117|372=i|373=1|10=005|8=FIX.4.4|9=61|35=b|34=543|49=Q027|52=20190704-17:46:51.228|56=XCD13|117=13|10=227|8=FIX.4.4|9=61|35=b|34=544|49=Q027|52=20190704-17:46:52.547|56=XCD13|117=14|10=234|8=FIX.4.4|9=105|35=3|34=545|49=Q027|52=20190704-17:46:52.598|56=XCD13|45=543|58=Required tag missing|371=117|372=i|373=1|10=027|8=FIX.4.4|9=105|35=3|34=546|49=Q027|52=20190704-17:46:53.166|56=XCD13|45=544|58=Required tag missing|371=117|372=i|373=1|10=021|8=FIX.4.4|9=61|35=b|34=547|49=Q027|52=20190704-17:46:54.578|56=XCD13|117=15|10=244|8=FIX.4.4|9=105|35=3|34=548|49=Q027|52=20190704-17:46:54.620|56=XCD13|45=546|58=Required tag missing|371=117|372=i|373=1|10=021|8=FIX.4.4|9=60|35=b|34=549|49=Q027|52=20190704-17:46:56.857|56=XCD13|117=0|10=193|8=FIX.4.4|9=60|35=b|34=550|49=Q027|52=20190704-17:46:58.825|56=XCD13|117=1|10=183|8=FIX.4.4|9=105|35=3|34=551|49=Q027|52=20190704-17:46:58.826|56=XCD13|45=549|58=Required tag missing|371=117|372=i|373=1|10=030|8=FIX.4.4|9=105|35=3|34=552|49=Q027|52=20190704-17:46:58.827|56=XCD13|45=550|58=Required tag missing|371=117|372=i|373=1|10=024|8=FIX.4.4|9=60|35=b|34=553|49=Q027|52=20190704-17:47:01.395|56=XCD13|117=2|10=178|8=FIX.4.4|9=105|35=3|34=554|49=Q027|52=20190704-17:47:01.395|56=XCD13|45=552|58=Required tag missing|371=117|372=i|373=1|10=017|8=FIX.4.4|9=60|35=b|34=555|49=Q027|52=20190704-17:47:04.376|56=XCD13|117=3|10=183|8=FIX.4.4|9=60|35=b|34=556|49=Q027|52=20190704-17:47:05.958|56=XCD13|117=4|10=192|8=FIX.4.4|9=105|35=3|34=557|49=Q027|52=20190704-17:47:06.008|56=XCD13|45=555|58=Required tag missing|371=117|372=i|373=1|10=019|8=FIX.4.4|9=60|35=b|34=558|49=Q027|52=20190704-17:47:08.954|56=XCD13|117=5|10=194|8=FIX.4.4|9=60|35=b|34=559|49=Q027|52=20190704-17:47:10.007|56=XCD13|117=6|10=178|8=FIX.4.4|9=105|35=3|34=560|49=Q027|52=20190704-17:47:10.697|56=XCD13|45=558|58=Required tag missing|371=117|372=i|373=1|10=025|8=FIX.4.4|9=60|35=b|34=561|49=Q027|52=20190704-17:47:16.868|56=XCD13|117=7|10=193|8=FIX.4.4|9=105|35=3|34=562|49=Q027|52=20190704-17:47:17.807|56=XCD13|45=560|58=Required tag missing|371=117|372=i|373=1|10=020|8=FIX.4.4|9=105|35=3|34=563|49=Q027|52=20190704-17:47:17.817|56=XCD13|45=561|58=Required tag missing|371=117|372=i|373=1|10=023|8=FIX.4.4|9=105|35=3|34=564|49=Q027|52=20190704-17:47:17.832|56=XCD13|45=562|58=Required tag missing|371=117|372=i|373=1|10=022|8=FIX.4.4|9=60|35=b|34=565|49=Q027|52=20190704-17:47:28.284|56=XCD13|117=8|10=193|8=FIX.4.4|9=60|35=b|34=566|49=Q027|52=20190704-17:47:31.301|56=XCD13|117=9|10=179|8=FIX.4.4|9=61|35=b|34=567|49=Q027|52=20190704-17:47:32.625|56=XCD13|117=10|10=231|8=FIX.4.4|9=61|35=b|34=568|49=Q027|52=20190704-17:47:36.056|56=XCD13|117=11|10=235|8=FIX.4.4|9=105|35=3|34=569|49=Q027|52=20190704-17:47:36.058|56=XCD13|45=567|58=Required tag missing|371=117|372=i|373=1|10=033|8=FIX.4.4|9=61|35=b|34=570|49=Q027|52=20190704-17:47:37.813|56=XCD13|117=12|10=231|8=FIX.4.4|9=105|35=3|34=571|49=Q027|52=20190704-17:47:38.726|56=XCD13|45=569|58=Required tag missing|371=117|372=i|373=1|10=032|8=FIX.4.4|9=61|35=b|34=572|49=Q027|52=20190704-17:47:41.224|56=XCD13|117=13|10=225|8=FIX.4.4|9=105|35=3|34=573|49=Q027|52=20190704-17:47:41.228|56=XCD13|45=571|58=Required tag missing|371=117|372=i|373=1|10=018|8=FIX.4.4|9=105|35=3|34=574|49=Q027|52=20190704-17:47:41.229|56=XCD13|45=572|58=Required tag missing|371=117|372=i|373=1|10=021|8=FIX.4.4|9=61|35=b|34=575|49=Q027|52=20190704-17:47:50.026|56=XCD13|117=14|10=229|8=FIX.4.4|9=61|35=b|34=576|49=Q027|52=20190704-17:47:51.249|56=XCD13|117=15|10=239|8=FIX.4.4|9=105|35=3|34=577|49=Q027|52=20190704-17:47:51.554|56=XCD13|45=575|58=Required tag missing|371=117|372=i|373=1|10=029|8=FIX.4.4|9=60|35=b|34=578|49=Q027|52=20190704-17:47:52.740|56=XCD13|117=0|10=183|8=FIX.4.4|9=105|35=3|34=579|49=Q027|52=20190704-17:47:52.887|56=XCD13|45=577|58=Required tag missing|371=117|372=i|373=1|10=043|8=FIX.4.4|9=105|35=3|34=580|49=Q027|52=20190704-17:47:53.731|56=XCD13|45=578|58=Required tag missing|371=117|372=i|373=1|10=025|8=FIX.4.4|9=60|35=b|34=581|49=Q027|52=20190704-17:47:53.819|56=XCD13|117=1|10=186|8=FIX.4.4|9=105|35=3|34=582|49=Q027|52=20190704-17:47:53.867|56=XCD13|45=580|58=Required tag missing|371=117|372=i|373=1|10=030|8=FIX.4.4|9=105|35=3|34=583|49=Q027|52=20190704-17:47:54.323|56=XCD13|45=581|58=Required tag missing|371=117|372=i|373=1|10=020|8=FIX.4.4|9=60|35=b|34=584|49=Q027|52=20190704-17:47:56.782|56=XCD13|117=2|10=192|8=FIX.4.4|9=60|35=b|34=585|49=Q027|52=20190704-17:47:57.800|56=XCD13|117=3|10=186|8=FIX.4.4|9=60|35=b|34=586|49=Q027|52=20190704-17:48:03.065|56=XCD13|117=4|10=183|8=FIX.4.4|9=60|35=b|34=587|49=Q027|52=20190704-17:48:22.592|56=XCD13|117=5|10=191|8=FIX.4.4|9=60|35=b|34=588|49=Q027|52=20190704-17:48:25.596|56=XCD13|117=6|10=200|8=FIX.4.4|9=60|35=b|34=589|49=Q027|52=20190704-17:48:27.789|56=XCD13|117=7|10=208|8=FIX.4.4|9=60|35=b|34=590|49=Q027|52=20190704-17:48:30.661|56=XCD13|117=8|10=184|8=FIX.4.4|9=60|35=b|34=591|49=Q027|52=20190704-17:48:32.135|56=XCD13|117=9|10=184|8=FIX.4.4|9=105|35=3|34=592|49=Q027|52=20190704-17:48:32.138|56=XCD13|45=590|58=Required tag missing|371=117|372=i|373=1|10=021|8=FIX.4.4|9=105|35=3|34=593|49=Q027|52=20190704-17:48:32.144|56=XCD13|45=591|58=Required tag missing|371=117|372=i|373=1|10=020|8=FIX.4.4|9=61|35=b|34=594|49=Q027|52=20190704-17:48:33.746|56=XCD13|117=10|10=237|8=FIX.4.4|9=105|35=3|34=595|49=Q027|52=20190704-17:48:34.188|56=XCD13|45=593|58=Required tag missing|371=117|372=i|373=1|10=034|8=FIX.4.4|9=61|35=b|34=596|49=Q027|52=20190704-17:48:35.618|56=XCD13|117=11|10=240|8=FIX.4.4|9=61|35=b|34=597|49=Q027|52=20190704-17:48:53.638|56=XCD13|117=12|10=244|8=FIX.4.4|9=105|35=3|34=598|49=Q027|52=20190704-17:48:54.360|56=XCD13|45=596|58=Required tag missing|371=117|372=i|373=1|10=034|8=FIX.4.4|9=105|35=3|34=599|49=Q027|52=20190704-17:48:54.368|56=XCD13|45=597|58=Required tag missing|371=117|372=i|373=1|10=044|8=FIX.4.4|9=105|35=3|34=600|49=Q027|52=20190704-17:48:54.387|56=XCD13|45=598|58=Required tag missing|371=117|372=i|373=1|10=029|8=FIX.4.4|9=61|35=b|34=601|49=Q027|52=20190704-17:48:55.931|56=XCD13|117=13|10=229|8=FIX.4.4|9=105|35=3|34=602|49=Q027|52=20190704-17:48:55.942|56=XCD13|45=600|58=Required tag missing|371=117|372=i|373=1|10=013|8=FIX.4.4|9=105|35=3|34=603|49=Q027|52=20190704-17:48:55.945|56=XCD13|45=601|58=Required tag missing|371=117|372=i|373=1|10=018|8=FIX.4.4|9=105|35=3|34=604|49=Q027|52=20190704-17:48:55.988|56=XCD13|45=602|58=Required tag missing|371=117|372=i|373=1|10=027|8=FIX.4.4|9=61|35=b|34=605|49=Q027|52=20190704-17:48:58.228|56=XCD13|117=14|10=236|8=FIX.4.4|9=61|35=b|34=606|49=Q027|52=20190704-17:48:59.278|56=XCD13|117=15|10=244|8=FIX.4.4|9=60|35=b|34=607|49=Q027|52=20190704-17:49:00.669|56=XCD13|117=0|10=181|8=FIX.4.4|9=105|35=3|34=608|49=Q027|52=20190704-17:49:00.864|56=XCD13|45=606|58=Required tag missing|371=117|372=i|373=1|10=019|8=FIX.4.4|9=105|35=3|34=609|49=Q027|52=20190704-17:49:01.559|56=XCD13|45=607|58=Required tag missing|371=117|372=i|373=1|10=023|8=FIX.4.4|9=60|35=b|34=610|49=Q027|52=20190704-17:49:01.900|56=XCD13|117=1|10=165|8=FIX.4.4|9=105|35=3|34=611|49=Q027|52=20190704-17:49:01.953|56=XCD13|45=609|58=Required tag missing|371=117|372=i|373=1|10=016|8=FIX.4.4|9=105|35=3|34=612|49=Q027|52=20190704-17:49:01.998|56=XCD13|45=610|58=Required tag missing|371=117|372=i|373=1|10=018|8=FIX.4.4|9=60|35=b|34=613|49=Q027|52=20190704-17:49:03.287|56=XCD13|117=2|10=179|8=FIX.4.4|9=105|35=3|34=614|49=Q027|52=20190704-17:49:03.312|56=XCD13|45=612|58=Required tag missing|371=117|372=i|373=1|10=004|8=FIX.4.4|9=105|35=3|34=615|49=Q027|52=20190704-17:49:03.683|56=XCD13|45=613|58=Required tag missing|371=117|372=i|373=1|10=017|8=FIX.4.4|9=60|35=b|34=616|49=Q027|52=20190704-17:49:05.627|56=XCD13|117=3|10=183|8=FIX.4.4|9=60|35=b|34=617|49=Q027|52=20190704-17:49:06.767|56=XCD13|117=4|10=191|8=FIX.4.4|9=105|35=3|34=618|49=Q027|52=20190704-17:49:06.793|56=XCD13|45=616|58=Required tag missing|371=117|372=i|373=1|10=028|8=FIX.4.4|9=105|35=3|34=619|49=Q027|52=20190704-17:49:07.419|56=XCD13|45=617|58=Required tag missing|371=117|372=i|373=1|10=026|8=FIX.4.4|9=60|35=b|34=620|49=Q027|52=20190704-17:49:09.555|56=XCD13|117=5|10=184|8=FIX.4.4|9=60|35=b|34=621|49=Q027|52=20190704-17:49:11.682|56=XCD13|117=6|10=180|8=FIX.4.4|9=60|35=b|34=622|49=Q027|52=20190704-17:49:14.501|56=XCD13|117=7|10=175|8=FIX.4.4|9=105|35=3|34=623|49=Q027|52=20190704-17:49:14.504|56=XCD13|45=621|58=Required tag missing|371=117|372=i|373=1|10=009|8=FIX.4.4|9=105|35=3|34=624|49=Q027|52=20190704-17:49:14.507|56=XCD13|45=622|58=Required tag missing|371=117|372=i|373=1|10=014|8=FIX.4.4|9=105|35=3|34=625|49=Q027|52=20190704-17:49:14.773|56=XCD13|45=623|58=Required tag missing|371=117|372=i|373=1|10=021|8=FIX.4.4|9=105|35=3|34=626|49=Q027|52=20190704-17:49:14.845|56=XCD13|45=624|58=Required tag missing|371=117|372=i|373=1|10=023|8=FIX.4.4|9=105|35=3|34=627|49=Q027|52=20190704-17:49:14.853|56=XCD13|45=625|58=Required tag missing|371=117|372=i|373=1|10=024|8=FIX.4.4|9=105|35=3|34=628|49=Q027|52=20190704-17:49:14.880|56=XCD13|45=626|58=Required tag missing|371=117|372=i|373=1|10=026|8=FIX.4.4|9=60|35=b|34=629|49=Q027|52=20190704-17:49:17.559|56=XCD13|117=8|10=199|8=FIX.4.4|9=105|35=3|34=630|49=Q027|52=20190704-17:49:17.609|56=XCD13|45=628|58=Required tag missing|371=117|372=i|373=1|10=023|8=FIX.4.4|9=105|35=3|34=631|49=Q027|52=20190704-17:49:18.213|56=XCD13|45=629|58=Required tag missing|371=117|372=i|373=1|10=017|8=FIX.4.4|9=60|35=b|34=632|49=Q027|52=20190704-17:49:36.022|56=XCD13|117=9|10=180|8=FIX.4.4|9=105|35=3|34=633|49=Q027|52=20190704-17:49:36.696|56=XCD13|45=631|58=Required tag missing|371=117|372=i|373=1|10=027|8=FIX.4.4|9=61|35=b|34=634|49=Q027|52=20190704-17:49:59.828|56=XCD13|117=10|10=242|8=FIX.4.4|9=112|35=3|34=635|49=Q027|52=20190704-17:49:59.828|56=XCD13|45=633|58=Tag appears more than once|371=106|372=W|373=13|10=018|8=FIX.4.4|9=61|35=b|34=636|49=Q027|52=20190704-17:50:02.328|56=XCD13|117=11|10=220|8=FIX.4.4|9=112|35=3|34=637|49=Q027|52=20190704-17:50:02.330|56=XCD13|45=635|58=Tag appears more than once|371=106|372=W|373=13|10=246|8=FIX.4.4|9=61|35=b|34=638|49=Q027|52=20190704-17:50:04.847|56=XCD13|117=12|10=231|8=FIX.4.4|9=105|35=3|34=639|49=Q027|52=20190704-17:50:05.369|56=XCD13|45=637|58=Required tag missing|371=117|372=i|373=1|10=024|8=FIX.4.4|9=61|35=b|34=640|49=Q027|52=20190704-17:50:09.231|56=XCD13|117=13|10=217|8=FIX.4.4|9=61|35=b|34=641|49=Q027|52=20190704-17:50:17.230|56=XCD13|117=14|10=217|8=FIX.4.4|9=105|35=3|34=642|49=Q027|52=20190704-17:50:17.230|56=XCD13|45=640|58=Required tag missing|371=117|372=i|373=1|10=002|8=FIX.4.4|9=61|35=b|34=643|49=Q027|52=20190704-17:50:24.718|56=XCD13|117=15|10=229|8=FIX.4.4|9=60|35=b|34=644|49=Q027|52=20190704-17:50:27.627|56=XCD13|117=0|10=177|8=FIX.4.4|9=105|35=3|34=645|49=Q027|52=20190704-17:50:27.676|56=XCD13|45=643|58=Required tag missing|371=117|372=i|373=1|10=023|8=FIX.4.4|9=105|35=3|34=646|49=Q027|52=20190704-17:50:27.875|56=XCD13|45=644|58=Required tag missing|371=117|372=i|373=1|10=026|8=FIX.4.4|9=105|35=3|34=647|49=Q027|52=20190704-17:50:27.917|56=XCD13|45=645|58=Required tag missing|371=117|372=i|373=1|10=025|8=FIX.4.4|9=60|35=b|34=648|49=Q027|52=20190704-17:50:32.785|56=XCD13|117=1|10=183|8=FIX.4.4|9=105|35=3|34=649|49=Q027|52=20190704-17:50:32.789|56=XCD13|45=647|58=Required tag missing|371=117|372=i|373=1|10=032|8=FIX.4.4|9=60|35=b|34=650|49=Q027|52=20190704-17:50:37.702|56=XCD13|117=2|10=171|8=FIX.4.4|9=105|35=3|34=651|49=Q027|52=20190704-17:50:37.732|56=XCD13|45=649|58=Required tag missing|371=117|372=i|373=1|10=020|8=FIX.4.4|9=105|35=3|34=652|49=Q027|52=20190704-17:50:37.766|56=XCD13|45=650|58=Required tag missing|371=117|372=i|373=1|10=020|8=FIX.4.4|9=105|35=3|34=653|49=Q027|52=20190704-17:50:37.784|56=XCD13|45=651|58=Required tag missing|371=117|372=i|373=1|10=022|8=FIX.4.4|9=105|35=3|34=654|49=Q027|52=20190704-17:50:37.860|56=XCD13|45=652|58=Required tag missing|371=117|372=i|373=1|10=019|8=FIX.4.4|9=105|35=3|34=655|49=Q027|52=20190704-17:50:37.860|56=XCD13|45=653|58=Required tag missing|371=117|372=i|373=1|10=021|8=FIX.4.4|9=105|35=3|34=656|49=Q027|52=20190704-17:50:37.873|56=XCD13|45=654|58=Required tag missing|371=117|372=i|373=1|10=027|8=FIX.4.4|9=105|35=3|34=657|49=Q027|52=20190704-17:50:37.943|56=XCD13|45=655|58=Required tag missing|371=117|372=i|373=1|10=027|8=FIX.4.4|9=105|35=3|34=658|49=Q027|52=20190704-17:50:37.975|56=XCD13|45=656|58=Required tag missing|371=117|372=i|373=1|10=034|8=FIX.4.4|9=60|35=b|34=659|49=Q027|52=20190704-17:50:40.719|56=XCD13|117=3|10=183|8=FIX.4.4|9=60|35=b|34=660|49=Q027|52=20190704-17:50:43.325|56=XCD13|117=4|10=172|8=FIX.4.4|9=60|35=b|34=661|49=Q027|52=20190704-17:50:45.861|56=XCD13|117=5|10=181|8=FIX.4.4|9=105|35=3|34=662|49=Q027|52=20190704-17:50:45.864|56=XCD13|45=660|58=Required tag missing|371=117|372=i|373=1|10=020|8=FIX.4.4|9=105|35=3|34=663|49=Q027|52=20190704-17:50:45.883|56=XCD13|45=661|58=Required tag missing|371=117|372=i|373=1|10=023|8=FIX.4.4|9=105|35=3|34=664|49=Q027|52=20190704-17:50:45.887|56=XCD13|45=662|58=Required tag missing|371=117|372=i|373=1|10=029|8=FIX.4.4|9=105|35=3|34=665|49=Q027|52=20190704-17:50:45.888|56=XCD13|45=663|58=Required tag missing|371=117|372=i|373=1|10=032|8=FIX.4.4|9=105|35=3|34=666|49=Q027|52=20190704-17:50:45.907|56=XCD13|45=664|58=Required tag missing|371=117|372=i|373=1|10=026|8=FIX.4.4|9=105|35=3|34=667|49=Q027|52=20190704-17:50:45.922|56=XCD13|45=665|58=Required tag missing|371=117|372=i|373=1|10=025|8=FIX.4.4|9=105|35=3|34=668|49=Q027|52=20190704-17:50:45.961|56=XCD13|45=666|58=Required tag missing|371=117|372=i|373=1|10=030|8=FIX.4.4|9=105|35=3|34=669|49=Q027|52=20190704-17:50:46.017|56=XCD13|45=667|58=Required tag missing|371=117|372=i|373=1|10=025|8=FIX.4.4|9=60|35=b|34=670|49=Q027|52=20190704-17:50:46.951|56=XCD13|117=6|10=183|8=FIX.4.4|9=105|35=3|34=671|49=Q027|52=20190704-17:50:47.295|56=XCD13|45=669|58=Required tag missing|371=117|372=i|373=1|10=029|8=FIX.4.4|9=60|35=b|34=672|49=Q027|52=20190704-17:50:48.501|56=XCD13|117=7|10=179|8=FIX.4.4|9=105|35=3|34=673|49=Q027|52=20190704-17:50:49.379|56=XCD13|45=671|58=Required tag missing|371=117|372=i|373=1|10=029|8=FIX.4.4|9=105|35=3|34=674|49=Q027|52=20190704-17:50:49.395|56=XCD13|45=672|58=Required tag missing|371=117|372=i|373=1|10=029|8=FIX.4.4|9=60|35=b|34=675|49=Q027|52=20190704-17:50:50.168|56=XCD13|117=8|10=185|8=FIX.4.4|9=105|35=3|34=676|49=Q027|52=20190704-17:50:50.869|56=XCD13|45=674|58=Required tag missing|371=117|372=i|373=1|10=031|8=FIX.4.4|9=60|35=b|34=677|49=Q027|52=20190704-17:50:51.982|56=XCD13|117=9|10=193|8=FIX.4.4|9=61|35=b|34=678|49=Q027|52=20190704-17:50:53.544|56=XCD13|117=10|10=231|8=FIX.4.4|9=61|35=b|34=679|49=Q027|52=20190704-17:50:55.614|56=XCD13|117=11|10=233|8=FIX.4.4|9=105|35=3|34=680|49=Q027|52=20190704-17:50:55.616|56=XCD13|45=678|58=Required tag missing|371=117|372=i|373=1|10=025|8=FIX.4.4|9=105|35=3|34=681|49=Q027|52=20190704-17:50:55.665|56=XCD13|45=679|58=Required tag missing|371=117|372=i|373=1|10=031|8=FIX.4.4|9=105|35=3|34=682|49=Q027|52=20190704-17:50:55.713|56=XCD13|45=680|58=Required tag missing|371=117|372=i|373=1|10=018|8=FIX.4.4|9=105|35=3|34=683|49=Q027|52=20190704-17:50:56.122|56=XCD13|45=681|58=Required tag missing|371=117|372=i|373=1|10=015|8=FIX.4.4|9=61|35=b|34=684|49=Q027|52=20190704-17:50:58.808|56=XCD13|117=12|10=238|8=FIX.4.4|9=105|35=3|34=685|49=Q027|52=20190704-17:50:59.378|56=XCD13|45=683|58=Required tag missing|371=117|372=i|373=1|10=035|8=FIX.4.4|9=61|35=b|34=686|49=Q027|52=20190704-17:51:05.595|56=XCD13|117=13|10=237|8=FIX.4.4|9=61|35=b|34=687|49=Q027|52=20190704-17:51:08.992|56=XCD13|117=14|10=243|8=FIX.4.4|9=105|35=3|34=688|49=Q027|52=20190704-17:51:08.995|56=XCD13|45=686|58=Required tag missing|371=117|372=i|373=1|10=041|8=FIX.4.4|9=105|35=3|34=689|49=Q027|52=20190704-17:51:08.997|56=XCD13|45=687|58=Required tag missing|371=117|372=i|373=1|10=045|8=FIX.4.4|9=105|35=3|34=690|49=Q027|52=20190704-17:51:09.051|56=XCD13|45=688|58=Required tag missing|371=117|372=i|373=1|10=020|8=FIX.4.4|9=105|35=3|34=691|49=Q027|52=20190704-17:51:09.508|56=XCD13|45=689|58=Required tag missing|371=117|372=i|373=1|10=029|8=FIX.4.4|9=61|35=b|34=692|49=Q027|52=20190704-17:51:10.097|56=XCD13|117=15|10=229|8=FIX.4.4|9=105|35=3|34=693|49=Q027|52=20190704-17:51:10.471|56=XCD13|45=691|58=Required tag missing|371=117|372=i|373=1|10=015|8=FIX.4.4|9=60|35=b|34=694|49=Q027|52=20190704-17:51:11.354|56=XCD13|117=0|10=173|8=FIX.4.4|9=105|35=3|34=695|49=Q027|52=20190704-17:51:11.360|56=XCD13|45=693|58=Required tag missing|371=117|372=i|373=1|10=017|8=FIX.4.4|9=105|35=3|34=696|49=Q027|52=20190704-17:51:11.364|56=XCD13|45=694|58=Required tag missing|371=117|372=i|373=1|10=023|8=FIX.4.4|9=60|35=b|34=697|49=Q027|52=20190704-17:51:13.908|56=XCD13|117=1|10=184|8=FIX.4.4|9=105|35=3|34=698|49=Q027|52=20190704-17:51:14.183|56=XCD13|45=696|58=Required tag missing|371=117|372=i|373=1|10=029|8=FIX.4.4|9=60|35=b|34=699|49=Q027|52=20190704-17:51:17.331|56=XCD13|117=2|10=181|8=FIX.4.4|9=105|35=3|34=700|49=Q027|52=20190704-17:51:18.106|56=XCD13|45=698|58=Required tag missing|371=117|372=i|373=1|10=014|8=FIX.4.4|9=60|35=b|34=701|49=Q027|52=20190704-17:51:45.491|56=XCD13|117=3|10=174|8=FIX.4.4|9=105|35=3|34=702|49=Q027|52=20190704-17:51:45.494|56=XCD13|45=700|58=Required tag missing|371=117|372=i|373=1|10=010|8=FIX.4.4|9=105|35=3|34=703|49=Q027|52=20190704-17:51:45.568|56=XCD13|45=701|58=Required tag missing|371=117|372=i|373=1|10=014|8=FIX.4.4|9=60|35=b|34=704|49=Q027|52=20190704-17:51:47.254|56=XCD13|117=4|10=177|8=FIX.4.4|9=105|35=3|34=705|49=Q027|52=20190704-17:51:47.319|56=XCD13|45=703|58=Required tag missing|371=117|372=i|373=1|10=014|8=FIX.4.4|9=105|35=3|34=706|49=Q027|52=20190704-17:51:47.368|56=XCD13|45=704|58=Required tag missing|371=117|372=i|373=1|10=020|8=FIX.4.4|9=105|35=3|34=707|49=Q027|52=20190704-17:51:47.560|56=XCD13|45=705|58=Required tag missing|371=117|372=i|373=1|10=016|8=FIX.4.4|9=60|35=b|34=708|49=Q027|52=20190704-17:51:50.622|56=XCD13|117=5|10=175|8=FIX.4.4|9=60|35=b|34=709|49=Q027|52=20190704-17:52:15.900|56=XCD13|117=6|10=178|8=FIX.4.4|9=60|35=b|34=710|49=Q027|52=20190704-17:52:32.649|56=XCD13|117=7|10=180|8=FIX.4.4|9=105|35=3|34=711|49=Q027|52=20190704-17:52:32.802|56=XCD13|45=709|58=Required tag missing|371=117|372=i|373=1|10=009|8=FIX.4.4|9=105|35=3|34=712|49=Q027|52=20190704-17:52:33.145|56=XCD13|45=710|58=Required tag missing|371=117|372=i|373=1|10=003|8=FIX.4.4|9=105|35=3|34=713|49=Q027|52=20190704-17:52:33.297|56=XCD13|45=711|58=Required tag missing|371=117|372=i|373=1|10=013|8=FIX.4.4|9=105|35=3|34=714|49=Q027|52=20190704-17:52:33.646|56=XCD13|45=712|58=Required tag missing|371=117|372=i|373=1|10=013|8=FIX.4.4|9=60|35=b|34=715|49=Q027|52=20190704-17:52:33.805|56=XCD13|117=8|10=181|8=FIX.4.4|9=105|35=3|34=716|49=Q027|52=20190704-17:52:34.148|56=XCD13|45=714|58=Required tag missing|371=117|372=i|373=1|10=015|8=FIX.4.4|9=105|35=3|34=717|49=Q027|52=20190704-17:52:34.306|56=XCD13|45=715|58=Required tag missing|371=117|372=i|373=1|10=013|8=FIX.4.4|9=105|35=3|34=718|49=Q027|52=20190704-17:52:34.648|56=XCD13|45=716|58=Required tag missing|371=117|372=i|373=1|10=024|8=FIX.4.4|9=60|35=b|34=719|49=Q027|52=20190704-17:52:34.808|56=XCD13|117=9|10=190|8=FIX.4.4|9=105|35=3|34=720|49=Q027|52=20190704-17:52:35.161|56=XCD13|45=718|58=Required tag missing|371=117|372=i|373=1|10=010|8=FIX.4.4|9=105|35=3|34=721|49=Q027|52=20190704-17:52:35.305|56=XCD13|45=719|58=Required tag missing|371=117|372=i|373=1|10=012|8=FIX.4.4|9=105|35=3|34=722|49=Q027|52=20190704-17:52:35.649|56=XCD13|45=720|58=Required tag missing|371=117|372=i|373=1|10=016|8=FIX.4.4|9=61|35=b|34=723|49=Q027|52=20190704-17:52:39.022|56=XCD13|117=10|10=219|8=FIX.4.4|9=105|35=3|34=724|49=Q027|52=20190704-17:52:39.619|56=XCD13|45=722|58=Required tag missing|371=117|372=i|373=1|10=021|8=FIX.4.4|9=61|35=b|34=725|49=Q027|52=20190704-17:52:59.900|56=XCD13|117=11|10=229|8=FIX.4.4|9=61|35=b|34=726|49=Q027|52=20190704-17:53:04.125|56=XCD13|117=12|10=221|8=FIX.4.4|9=61|35=b|34=727|49=Q027|52=20190704-17:53:06.677|56=XCD13|117=13|10=237|8=FIX.4.4|9=61|35=b|34=728|49=Q027|52=20190704-17:53:16.800|56=XCD13|117=14|10=228|8=FIX.4.4|9=61|35=b|34=729|49=Q027|52=20190704-17:53:24.396|56=XCD13|117=15|10=239|8=FIX.4.4|9=60|35=b|34=730|49=Q027|52=20190704-17:53:27.097|56=XCD13|117=0|10=177|8=FIX.4.4|9=54|35=5|34=731|49=Q027|52=20190704-17:53:31.098|56=XCD13|10=125|8=FIX.4.4|9=60|35=b|34=732|49=Q027|52=20190704-17:53:31.175|56=XCD13|117=1|10=172|