8=FIX.4.4|9=106|35=A|34=1|49=T027|52=20190704-17:06:54.691|56=XCD13|98=0|108=30|553=primexm_fix_uat_20_t|554=XtxyIqNx2mEK|10=115|8=FIX.4.4|9=61|35=2|34=2|49=T027|52=20190704-17:06:55.475|56=XCD13|7=1|16=0|10=144|8=FIX.4.4|9=100|35=3|34=3|49=T027|52=20190704-17:06:56.121|56=XCD13|45=71|58=Required tag missing|371=6|372=8|373=1|10=212|8=FIX.4.4|9=100|35=3|34=4|49=T027|52=20190704-17:06:56.317|56=XCD13|45=73|58=Required tag missing|371=6|372=8|373=1|10=222|8=FIX.4.4|9=100|35=3|34=5|49=T027|52=20190704-17:06:56.518|56=XCD13|45=75|58=Required tag missing|371=6|372=8|373=1|10=228|8=FIX.4.4|9=100|35=3|34=6|49=T027|52=20190704-17:06:56.519|56=XCD13|45=77|58=Required tag missing|371=6|372=8|373=1|10=232|8=FIX.4.4|9=101|35=3|34=7|49=T027|52=20190704-17:06:57.120|56=XCD13|45=115|58=Required tag missing|371=6|372=8|373=1|10=008|8=FIX.4.4|9=101|35=3|34=8|49=T027|52=20190704-17:06:57.722|56=XCD13|45=213|58=Required tag missing|371=6|372=8|373=1|10=016|8=FIX.4.4|9=52|35=0|34=9|49=T027|52=20190704-17:07:28.487|56=XCD13|10=030|8=FIX.4.4|9=53|35=0|34=10|49=T027|52=20190704-17:07:59.775|56=XCD13|10=075|8=FIX.4.4|9=53|35=0|34=11|49=T027|52=20190704-17:08:30.101|56=XCD13|10=049|8=FIX.4.4|9=53|35=0|34=12|49=T027|52=20190704-17:09:01.482|56=XCD13|10=061|8=FIX.4.4|9=53|35=0|34=13|49=T027|52=20190704-17:09:31.513|56=XCD13|10=060|8=FIX.4.4|9=53|35=0|34=14|49=T027|52=20190704-17:10:01.722|56=XCD13|10=052|8=FIX.4.4|9=53|35=0|34=15|49=T027|52=20190704-17:10:31.854|56=XCD13|10=062|8=FIX.4.4|9=53|35=0|34=16|49=T027|52=20190704-17:11:02.065|56=XCD13|10=056|8=FIX.4.4|9=107|35=A|34=17|49=T027|52=20190704-17:20:49.441|56=XCD13|98=0|108=30|553=primexm_fix_uat_20_t|554=XtxyIqNx2mEK|10=164|8=FIX.4.4|9=64|35=2|34=18|49=T027|52=20190704-17:20:50.307|56=XCD13|7=527|16=0|10=040|8=FIX.4.4|9=53|35=0|34=19|49=T027|52=20190704-17:21:20.517|56=XCD13|10=062|8=FIX.4.4|9=53|35=0|34=20|49=T027|52=20190704-17:21:50.717|56=XCD13|10=059|8=FIX.4.4|9=53|35=0|34=21|49=T027|52=20190704-17:22:20.923|56=XCD13|10=057|8=FIX.4.4|9=53|35=0|34=22|49=T027|52=20190704-17:22:51.144|56=XCD13|10=057|8=FIX.4.4|9=53|35=0|34=23|49=T027|52=20190704-17:23:21.351|56=XCD13|10=056|8=FIX.4.4|9=53|35=0|34=24|49=T027|52=20190704-17:23:51.565|56=XCD13|10=067|8=FIX.4.4|9=53|35=0|34=25|49=T027|52=20190704-17:24:21.812|56=XCD13|10=061|8=FIX.4.4|9=53|35=0|34=26|49=T027|52=20190704-17:24:52.032|56=XCD13|10=060|8=FIX.4.4|9=53|35=0|34=27|49=T027|52=20190704-17:25:22.252|56=XCD13|10=063|8=FIX.4.4|9=53|35=0|34=28|49=T027|52=20190704-17:25:52.457|56=XCD13|10=074|8=FIX.4.4|9=53|35=0|34=29|49=T027|52=20190704-17:26:22.674|56=XCD13|10=074|8=FIX.4.4|9=53|35=0|34=30|49=T027|52=20190704-17:26:52.885|56=XCD13|10=073|8=FIX.4.4|9=53|35=0|34=31|49=T027|52=20190704-17:27:23.095|56=XCD13|10=066|8=FIX.4.4|9=53|35=0|34=32|49=T027|52=20190704-17:27:53.300|56=XCD13|10=059|8=FIX.4.4|9=53|35=0|34=33|49=T027|52=20190704-17:28:23.520|56=XCD13|10=062|8=FIX.4.4|9=53|35=0|34=34|49=T027|52=20190704-17:28:53.712|56=XCD13|10=069|8=FIX.4.4|9=53|35=0|34=35|49=T027|52=20190704-17:29:23.921|56=XCD13|10=070|8=FIX.4.4|9=53|35=0|34=36|49=T027|52=20190704-17:29:54.123|56=XCD13|10=069|8=FIX.4.4|9=53|35=0|34=37|49=T027|52=20190704-17:30:24.332|56=XCD13|10=061|8=FIX.4.4|9=53|35=0|34=38|49=T027|52=20190704-17:30:54.544|56=XCD13|10=070|8=FIX.4.4|9=53|35=0|34=39|49=T027|52=20190704-17:31:24.746|56=XCD13|10=073|8=FIX.4.4|9=53|35=0|34=40|49=T027|52=20190704-17:31:54.951|56=XCD13|10=066|8=FIX.4.4|9=53|35=0|34=41|49=T027|52=20190704-17:32:25.161|56=XCD13|10=059|8=FIX.4.4|9=53|35=0|34=42|49=T027|52=20190704-17:32:55.390|56=XCD13|10=067|8=FIX.4.4|9=53|35=0|34=43|49=T027|52=20190704-17:33:25.605|56=XCD13|10=065|8=FIX.4.4|9=53|35=0|34=44|49=T027|52=20190704-17:33:55.807|56=XCD13|10=073|8=FIX.4.4|9=53|35=0|34=45|49=T027|52=20190704-17:34:26.019|56=XCD13|10=068|8=FIX.4.4|9=53|35=5|34=46|49=T027|52=20190704-17:34:47.234|56=XCD13|10=076|8=FIX.4.4|9=107|35=A|34=47|49=T027|52=20190704-17:38:34.955|56=XCD13|98=0|108=30|553=primexm_fix_uat_20_t|554=XtxyIqNx2mEK|10=180|8=FIX.4.4|9=53|35=0|34=48|49=T027|52=20190704-17:39:05.824|56=XCD13|10=077|8=FIX.4.4|9=53|35=0|34=49|49=T027|52=20190704-17:39:36.009|56=XCD13|10=077|8=FIX.4.4|9=53|35=0|34=50|49=T027|52=20190704-17:40:06.221|56=XCD13|10=054|8=FIX.4.4|9=53|35=0|34=51|49=T027|52=20190704-17:40:36.439|56=XCD13|10=069|8=FIX.4.4|9=53|35=0|34=52|49=T027|52=20190704-17:41:06.644|56=XCD13|10=066|8=FIX.4.4|9=53|35=0|34=53|49=T027|52=20190704-17:41:36.849|56=XCD13|10=077|8=FIX.4.4|9=53|35=0|34=54|49=T027|52=20190704-17:42:07.057|56=XCD13|10=068|8=FIX.4.4|9=53|35=0|34=55|49=T027|52=20190704-17:42:37.271|56=XCD13|10=070|8=FIX.4.4|9=53|35=0|34=56|49=T027|52=20190704-17:43:07.493|56=XCD13|10=075|8=FIX.4.4|9=53|35=0|34=57|49=T027|52=20190704-17:43:37.677|56=XCD13|10=083|8=FIX.4.4|9=53|35=0|34=58|49=T027|52=20190704-17:44:07.880|56=XCD13|10=078|8=FIX.4.4|9=53|35=0|34=59|49=T027|52=20190704-17:44:38.090|56=XCD13|10=076|8=FIX.4.4|9=53|35=0|34=60|49=T027|52=20190704-17:45:08.298|56=XCD13|10=076|8=FIX.4.4|9=53|35=0|34=61|49=T027|52=20190704-17:45:38.499|56=XCD13|10=083|8=FIX.4.4|9=53|35=0|34=62|49=T027|52=20190704-17:46:08.709|56=XCD13|10=076|8=FIX.4.4|9=53|35=0|34=63|49=T027|52=20190704-17:46:38.913|56=XCD13|10=077|8=FIX.4.4|9=53|35=0|34=64|49=T027|52=20190704-17:47:09.122|56=XCD13|10=069|8=FIX.4.4|9=53|35=0|34=65|49=T027|52=20190704-17:47:39.333|56=XCD13|10=077|8=FIX.4.4|9=53|35=0|34=66|49=T027|52=20190704-17:48:09.542|56=XCD13|10=078|8=FIX.4.4|9=53|35=0|34=67|49=T027|52=20190704-17:48:39.749|56=XCD13|10=091|8=FIX.4.4|9=53|35=0|34=68|49=T027|52=20190704-17:49:09.880|56=XCD13|10=086|8=FIX.4.4|9=53|35=0|34=69|49=T027|52=20190704-17:49:40.082|56=XCD13|10=076|8=FIX.4.4|9=53|35=0|34=70|49=T027|52=20190704-17:50:10.286|56=XCD13|10=063|8=FIX.4.4|9=53|35=0|34=71|49=T027|52=20190704-17:50:40.495|56=XCD13|10=069|8=FIX.4.4|9=53|35=0|34=72|49=T027|52=20190704-17:51:10.700|56=XCD13|10=057|8=FIX.4.4|9=53|35=0|34=73|49=T027|52=20190704-17:51:40.906|56=XCD13|10=069|8=FIX.4.4|9=53|35=0|34=74|49=T027|52=20190704-17:52:11.119|56=XCD13|10=065|8=FIX.4.4|9=53|35=0|34=75|49=T027|52=20190704-17:52:41.327|56=XCD13|10=070|8=FIX.4.4|9=53|35=0|34=76|49=T027|52=20190704-17:53:11.527|56=XCD13|10=071|8=FIX.4.4|9=53|35=5|34=77|49=T027|52=20190704-17:53:29.736|56=XCD13|10=088|