8=FIX.4.4|9=106|35=A|34=1|49=T027|52=20190712-07:30:35.675|56=XCD13|98=0|108=30|553=primexm_fix_uat_20_t|554=XtxyIqNx2mEK|10=111|8=FIX.4.4|9=61|35=2|34=2|49=T027|52=20190712-07:30:36.469|56=XCD13|7=1|16=0|10=141|8=FIX.4.4|9=106|35=A|34=3|49=T027|52=20190712-07:33:41.148|56=XCD13|98=0|108=30|553=primexm_fix_uat_20_t|554=XtxyIqNx2mEK|10=108|8=FIX.4.4|9=62|35=2|34=4|49=T027|52=20190712-07:33:41.922|56=XCD13|7=93|16=0|10=196|