8=FIX.4.4|9=112|35=A|34=1|49=Q027|52=20190712-07:33:42.339|56=XCD13|98=0|108=30|141=Y|553=primexm_fix_uat_20_q|554=7y8QNNgzxKto|10=129|8=FIX.4.4|9=106|35=V|34=2|49=Q027|52=20190712-07:33:42.669|56=XCD13|262=1|263=1|264=1|1500=1|267=1|269=0|146=1|55=USD/JPY|10=149|8=FIX.4.4|9=58|35=b|34=3|49=Q027|52=20190712-07:33:42.943|56=XCD13|117=1|10=075|8=FIX.4.4|9=106|35=V|34=4|49=Q027|52=20190712-07:33:43.192|56=XCD13|262=2|263=1|264=1|1500=2|267=1|269=0|146=1|55=EUR/USD|10=138|